:100000006DC021C286C085C084C083C082C081C04B
:1000100080C07FC07EC07DC07CC07BC07AC079C0FC
:1000200078C077C076C00403090412034E00610053
:10003000670069002D0053007900730028034E000B
:10004000610067006900200046006900740020001C
:1000500043006F006E00740072006F006C006C0053
:10006000650072001201100100000008EDFEEFBEF5
:1000700000010102000109022200010100800A09B9
:1000800004000001030000000921010100012243D6
:10009000000705810308006405010905A1010901A4
:1000A000A10009300931150026020095027508816A
:1000B00002C00509190129061500250195067501DB
:1000C00081029507750181019505750105081901E2
:1000D00029059102950175039101C00011241FBEED
:1000E000CFE5D4E0DEBFCDBF10E0A0E6B0E0E8E3AE
:1000F000F8E002C005900D92A236B107D9F710E0E2
:10010000A2E6B0E001C01D92A03AB107E1F783D3A7
:1001100091C376CF85B7826085BF8BB780648BBF74
:100120008BE4809373008AE58093720008951F9397
:10013000DC01162F8091720084FF07C0809173004C
:1001400098E889278093730003C08AE58093720042
:10015000912FE4E7F0E08D91819391501916DCF333
:1001600084E790E0612F6BD11C5F62E770E0109331
:100170007200CB0123E0959587952A95E1F783706E
:1001800011508F5D6F5F7F4F412F7ED21F91089579
:100190001F93CF93DF9340918300142F135017FDCB
:1001A000C5C080918000CCE0D0E0C81BD109C95700
:1001B000DF4F80917F008F704150805FBE0164D21D
:1001C00080917F008D3209F09EC0183009F0ACC0DC
:1001D00083EC809367008AE5809360001092620050
:1001E0008881807639F0CE01EBD2282F8F3F09F439
:1001F00079C07FC09A81109270008981882321F490
:100200001092710022E067C0853019F49093840049
:1002100061C0863009F04AC08B81813019F484E6D0
:1002200090E01BC0823041F486E790E0909382001A
:100230008093810022E236C08330F9F48A818823DA
:1002400041F486E290E0909382008093810024E064
:1002500029C0813041F48AE290E09093820080933B
:10026000810022E11FC08230E1F48CE390E09093A2
:1002700082008093810028E215C0813241F488E831
:1002800090E0909382008093810029E00BC082323D
:1002900041F488E990E0909382008093810023E408
:1002A00001C020E080E48093620023C0883021F404
:1002B00021E086E890E011C0893019F4909386001F
:1002C00009C08A3011F421E006C08B3019F48BE4A8
:1002D0008093730020E080E790E090938200809309
:1002E000810007C0888187FD2E8180E880936200AD
:1002F00006C08F81882319F46E81621708F0622F7F
:100300006093610011C08091620087FF0DC0CE0133
:10031000612F51D28F3F21F48EE18093600004C0A1
:10032000882311F010926100109283008091600088
:1003300084FF5DC0809161008F3F09F458C0182F81
:10034000893008F018E0811B80936100809167007C
:1003500098E8892780936700112391F180916200CA
:1003600087FF08C088E690E0612F23D2182F8930DC
:1003700098F526C0209181003091820086FF0DC043
:10038000A8E6B0E080E090E0F901E80FF91FE49101
:10039000ED9301961817C1F708C0912FD901E8E62F
:1003A000F0E08D9181939150E1F71150812F90E011
:1003B0001F5F0196820F931F9093820080938100AC
:1003C00088E690E0612F3BD0412F4C5F4C3041F0EC
:1003D0008FEF8093610004C08FEF809361004EE146
:1003E00040936000415080E267E670E04DD194E1B7
:1003F00080B38C7059F49150D9F710928400109208
:100400007E008FEF60E070E040E03ED1DF91CF9161
:100410001F910895A82FB92F80E090E041E050EAA5
:10042000609530E009C02D9182279795879510F04F
:1004300084279527305EC8F36F5FA8F30895EADF3D
:100440008D939D930895CF93CFB7CF93DF93C395AB
:10045000839BE9F7839B0BC0839B09C0839B07C0E9
:10046000839B05C0839B03C0839B01C08BC06F939C
:10047000C0918000DD27C957DF4F2F9365E5839B2F
:1004800003C02F916F91E6CF0F931F934F9320E0FE
:1004900040E15F9300B30C7003FB27F93F9350E0FA
:1004A0003BE039C01C7040642F77012F5F5F1EC096
:1004B000406810B31C702F7752501FC0406400B3C7
:1004C0002F770C70D1F15F5F00C023C0406210B382
:1004D0002F771C7091F15F5F00C025C00C70102752
:1004E000515012F45D5F0000115027952C3F10B35E
:1004F000C8F61C700127015027952C3FC8F64227EB
:10050000499300B30C7010274F73115027952C3F5F
:10051000A8F64695469510B31C7079F00127015056
:1005200027952C3F98F66B5A60F3315000B3B0F624
:1005300000C010E41ABF002719C03B503195C31BFF
:10054000D04010E41ABF0881033C09F10B34F9F0E4
:1005500020917E001981110F1213EDCF4A81441FA3
:10056000093651F10D3211F0013E29F70093850053
:100570003F915F914F911F910F912F916F91CAB74A
:10058000C6FD65CFDF91CF91CFBFCF911895209158
:100590008500222369F310918300112391F53430F3
:1005A00092F13093830020937F00109180003BE014
:1005B000311B3093800027C00091830001300CF57F
:1005C0000AE54F7049F43091600034FD1DC000937E
:1005D0006000C7E6D0E01CC03091720034FD14C04A
:1005E00000937200C3E7D0E013C0052710E000C0FD
:1005F000000002BB1AC0052710E0221F1DC010E03A
:1006000021C04AE502C032ED432FC4E1D0E032E020
:1006100011B31C60939A02B311BB5CE020E865E360
:1006200020FF052702BB279517951C3FF0F666951E
:10063000B8F7B1F720FF052702BB279517951C3F98
:10064000D0F62795179517FF052700001C3F02BB22
:10065000B0F629913A9519F7037F10918400110F94
:10066000C651D04002BB11F010937E0010E41ABFB7
:10067000086011B3137F402F437F54E05A95F1F780
:1006800002BB11BB42BB74CFFB01982F92959F70A8
:100690009A3008F0995D5D9BFECF905D9CB98F709C
:1006A0008A3008F0895D5D9BFECF805D8CB95D9BD3
:1006B000FECF8AE38CB920E219C05D9BFECF2CB936
:1006C0009081892F82958F708A3008F0895D5D9BBB
:1006D000FECF805D8CB9892F8F708A3008F0895DDC
:1006E0005D9BFECF3196805D8CB94150442329F744
:1006F0005D9BFECF8DE08CB95D9BFECF8AE08CB90F
:1007000008958FEF85BB14BA82B3806F82BB81B32B
:100710008F7081BB0895849903C01092640007C054
:10072000859902C082E001C081E0809364008699CF
:1007300003C01092650007C0879902C082E001C023
:1007400081E08093650083B3806C80958093630023
:100750009091650090939D009091640090939E000D
:1007600080939F0008958FEF87BB88BB089588BB57
:1007700008958EE028E130E00FB6F894A89521BDE9
:100780000FBE81BD539A83E389B9C4DC8B9A20E004
:1007900040EA5FE004C0A895CA010197F1F7215033
:1007A000D1F78B98789480E160E070E040E06CDFF6
:1007B0000895862F0895FC018081D9DF81E0089596
:1007C000CF93DF93682FC82FD92F86E6792F48E083
:1007D0005BDF888180768032D1F48981813041F479
:1007E0008DE990E0909382008093810083E010C0B7
:1007F000823041F486E690E09093820080938100FD
:1008000081E006C08A3019F48B81809366008FEFF7
:10081000DF91CF91089575DFA6DFABDFA895B8DC37
:100820007ADF8091720084FFF9CF8DE990E063E078
:080830007EDCF4CFF894FFCF49
:020838005AFF65
:00000001FF
