:100000006DC021C286C085C084C083C082C081C04B
:1000100080C07FC07EC07DC07CC07BC07AC079C0FC
:1000200078C077C076C00403090412034E00610053
:10003000670069002D0053007900730028034E000B
:10004000610067006900200046006900740020001C
:1000500043006F006E00740072006F006C006C0053
:10006000650072001201100100000008EDFEEFBEF5
:1000700000010102000109022200010100800A09B9
:1000800004000001030000000921010100012243D6
:10009000000705810308006405010905A1010901A4
:1000A000A10009300931150026020095027508816A
:1000B00002C00509190129061500250195067501DB
:1000C00081029507750181019505750105081901E2
:1000D00029059102950175039101C00011241FBEED
:1000E000CFE5D4E0DEBFCDBF10E0A0E6B0E0E8E6AB
:1000F000F9E102C005900D92A236B107D9F710E0E0
:10010000A2E6B0E001C01D92AE3BB107E1F7F3DA21
:1001100029CC76CF85B7826085BF8BB780648BBFD3
:100120008BE4809375008AE58093740008951F9393
:10013000DC01162F8091740084FF07C08091750048
:1001400098E889278093750003C08AE5809374003E
:10015000912FE6E7F0E08D91819391501916DCF331
:1001600086E790E0612F6BD11C5F64E770E010932D
:100170007400CB0123E0959587952A95E1F783706C
:1001800011508F5D6F5F7F4F412F7ED21F91089579
:100190001F93CF93DF9340918500142F135017FDC9
:1001A000C5C080918200CCE0D0E0C81BD109C75700
:1001B000DF4F809181008F704150805FBE0164D21B
:1001C000809181008D3209F09EC0183009F0ACC0DA
:1001D00083EC809369008AE580936000109262004E
:1001E0008881807639F0CE015BDA282F8F3F09F4C1
:1001F00079C07FC09A81109272008981882321F48E
:100200001092730022E067C0853019F49093860045
:1002100061C0863009F04AC08B81813019F484E6D0
:1002200090E01BC0823041F486E790E09093840018
:100230008093830022E236C08330F9F48A818823D8
:1002400041F486E290E0909384008093830024E060
:1002500029C0813041F48AE290E090938400809339
:10026000830022E11FC08230E1F48CE390E09093A0
:1002700084008093830028E215C0813241F488E82D
:1002800090E0909384008093830029E00BC0823239
:1002900041F488E990E0909384008093830023E404
:1002A00001C020E080E48093620023C0883021F404
:1002B00021E088E890E011C0893019F4909388001B
:1002C00009C08A3011F421E006C08B3019F48BE4A8
:1002D0008093750020E082E790E090938400809303
:1002E000830007C0888187FD2E8180E880936200AB
:1002F00006C08F81882319F46E81621708F0622F7F
:100300006093610011C08091620087FF0DC0CE0133
:10031000612FC1D98F3F21F48EE18093600004C02A
:10032000882311F010926100109285008091600086
:1003300084FF5DC0809161008F3F09F458C0182F81
:10034000893008F018E0811B80936100809169007A
:1003500098E8892780936900112391F180916200C8
:1003600087FF08C08AE690E0612F93D9182F893063
:1003700098F526C0209183003091840086FF0DC03F
:10038000AAE6B0E080E090E0F901E80FF91FE491FF
:10039000ED9301961817C1F708C0912FD901EAE62D
:1003A000F0E08D9181939150E1F71150812F90E011
:1003B0001F5F0196820F931F9093840080938300A8
:1003C0008AE690E0612F3BD0412F4C5F4C3041F0EA
:1003D0008FEF8093610004C08FEF809361004EE146
:1003E00040936000415080E269E670E04DD194E1B5
:1003F00080B38C7059F49150D9F710928600109206
:1004000080008FEF60E070E040E03ED1DF91CF915F
:100410001F910895A82FB92F80E090E041E050EAA5
:10042000609530E009C02D9182279795879510F04F
:1004300084279527305EC8F36F5FA8F30895EADF3D
:100440008D939D930895CF93CFB7CF93DF93C395AB
:10045000839BE9F7839B0BC0839B09C0839B07C0E9
:10046000839B05C0839B03C0839B01C08BC06F939C
:10047000C0918200DD27C757DF4F2F9365E5839B2F
:1004800003C02F916F91E6CF0F931F934F9320E0FE
:1004900040E15F9300B30C7003FB27F93F9350E0FA
:1004A0003BE039C01C7040642F77012F5F5F1EC096
:1004B000406810B31C702F7752501FC0406400B3C7
:1004C0002F770C70D1F15F5F00C023C0406210B382
:1004D0002F771C7091F15F5F00C025C00C70102752
:1004E000515012F45D5F0000115027952C3F10B35E
:1004F000C8F61C700127015027952C3FC8F64227EB
:10050000499300B30C7010274F73115027952C3F5F
:10051000A8F64695469510B31C7079F00127015056
:1005200027952C3F98F66B5A60F3315000B3B0F624
:1005300000C010E41ABF002719C03B503195C31BFF
:10054000D04010E41ABF0881033C09F10B34F9F0E4
:10055000209180001981110F1213EDCF4A81441FA1
:10056000093651F10D3211F0013E29F70093870051
:100570003F915F914F911F910F912F916F91CAB74A
:10058000C6FD65CFDF91CF91CFBFCF911895209158
:100590008700222369F310918500112391F53430EF
:1005A00092F13093850020938100109182003BE00E
:1005B000311B3093820027C00091850001300CF57B
:1005C0000AE54F7049F43091600034FD1DC000937E
:1005D0006000C9E6D0E01CC03091740034FD14C046
:1005E00000937400C5E7D0E013C0052710E000C0F9
:1005F000000002BB1AC0052710E0221F1DC010E03A
:1006000021C04AE502C032ED432FC4E1D0E032E020
:1006100011B31C60939A02B311BB5CE020E865E360
:1006200020FF052702BB279517951C3FF0F666951E
:10063000B8F7B1F720FF052702BB279517951C3F98
:10064000D0F62795179517FF052700001C3F02BB22
:10065000B0F629913A9519F7037F10918600110F92
:10066000C651D04002BB11F01093800010E41ABFB5
:10067000086011B3137F402F437F54E05A95F1F780
:1006800002BB11BB42BB74CFFB01982F92959F70A8
:100690009A3008F0995D5D9BFECF905D9CB98F709C
:1006A0008A3008F0895D5D9BFECF805D8CB95D9BD3
:1006B000FECF8AE38CB920E219C05D9BFECF2CB936
:1006C0009081892F82958F708A3008F0895D5D9BBB
:1006D000FECF805D8CB9892F8F708A3008F0895DDC
:1006E0005D9BFECF3196805D8CB94150442329F744
:1006F0005D9BFECF8DE08CB95D9BFECF8AE08CB90F
:100700000895DF93CF9300D000D0CDB7DEB76983D3
:100710007A838B839C830BC089819A81AB81BC8156
:100720000197A109B10989839A83AB83BC8389812D
:100730009A81AB81BC810097A105B10569F70F9043
:100740000F900F900F90CF91DF910895DF93CF938B
:10075000CDB7DEB76C970FB6F894DEBF0FBECDBF36
:1007600081E090E09E838D831C821B82A1E3B0E038
:10077000E1E3F0E080818F7E8C93A1E3B0E0E1E3E0
:10078000F0E08081482FE1E3F0E08081282F30E025
:1007900081E090E0022E02C0880F991F0A94E2F7D0
:1007A000809584238C93A2E3B0E0E2E3F0E08081C3
:1007B0008F7E8C93A2E3B0E0E2E3F0E080818F7D56
:1007C0008C930000E0E3F0E08081882F90E080715E
:1007D00090700097B1F70000E0E3F0E08081882F8F
:1007E00090E0807190700097B1F30000E0E3F0E0DA
:1007F0008081882F90E0807190700097B1F7E0E3DE
:10080000F0E08081882F90E080729070009729F04E
:1008100081E090E09C878B8702C01C861B860000CD
:10082000E0E3F0E08081882F90E080719070009785
:10083000B1F30000E0E3F0E08081882F90E0807168
:1008400090700097B1F7E0E3F0E08081882F90E0AE
:1008500080729070009729F081E090E09E878D87EC
:1008600002C01E861D860000E0E3F0E08081882F34
:1008700090E0807190700097B1F30000E0E3F0E049
:100880008081882F90E0807190700097B1F7E0E34D
:10089000F0E08081882F90E080729070009729F0BE
:1008A00081E090E0988B8F8702C0188A1F86000035
:1008B000E0E3F0E08081882F90E0807190700097F5
:1008C000B1F30000E0E3F0E08081882F90E08071D8
:1008D00090700097B1F7E0E3F0E08081882F90E01E
:1008E00080729070009729F081E090E09A8B898B5C
:1008F00002C01A8A198A0000E0E3F0E08081882FA4
:1009000090E0807190700097B1F30000E0E3F0E0B8
:100910008081882F90E0807190700097B1F7E0E3BC
:10092000F0E08081882F90E080729070009729F02D
:1009300081E090E09C8B8B8B02C01C8A1B8A00009C
:10094000E0E3F0E08081882F90E080719070009764
:10095000B1F30000E0E3F0E08081882F90E0807147
:1009600090700097B1F7E0E3F0E08081882F90E08D
:1009700080729070009729F081E090E09E8B8D8BC3
:1009800002C01E8A1D8A0000E0E3F0E08081882F0B
:1009900090E0807190700097B1F30000E0E3F0E028
:1009A0008081882F90E0807190700097B1F7E0E32C
:1009B000F0E08081882F90E080729070009729F09D
:1009C00081E090E0988F8F8B02C0188E1F8A000004
:1009D000E0E3F0E08081882F90E0807190700097D4
:1009E000B1F30000E0E3F0E08081882F90E08071B7
:1009F00090700097B1F7E0E3F0E08081882F90E0FD
:100A000080729070009729F081E090E09A8F898F32
:100A100002C01A8E198E0000E0E3F0E08081882F7A
:100A200090E0807190700097B1F30000E0E3F0E097
:100A30008081882F90E0807190700097B1F7E0E39B
:100A4000F0E08081882F90E080729070009719F01C
:100A500018861F8204C081E090E098878F83000091
:100A6000E0E3F0E08081882F90E080719070009743
:100A7000B1F30000E0E3F0E08081882F90E0807126
:100A800090700097B1F70000E0E3F0E08081882FDC
:100A900090E0807190700097B1F381E090E09E83C8
:100AA0008D831A86198628C089859A859C01220F14
:100AB000331FCE010196820F931FFC013A962081CD
:100AC00031818D819E81A901489F9001499F300D00
:100AD000589F300D11248B819C81820F931F9C8322
:100AE0008B838D819E81880F991F9E838D8389853D
:100AF0009A8501969A87898789859A858830910594
:100B00009CF28F819885009799F48B81082E8295AD
:100B10008025082E8695869580258A838A81882F50
:100B200090E0019695958795817090700097B9F047
:100B30008F8198850097C1F08B81082E8295802542
:100B4000082E86958695802589838981882F90E057
:100B500001969595879581709070009729F08B810B
:100B60009C819C8F8B8F06C08EEF90E00ED0EEDDC7
:100B70009C8F8B8F8B8D9C8D6C960FB6F894DEBFFF
:100B80000FBECDBFCF91DF910895DF93CF9300D0FB
:100B90000F92CDB7DEB79B838A83A1E3B0E0E1E398
:100BA000F0E080818F7D8C93A2E3B0E0E2E3F0E09F
:100BB00080818F7D8C93A1E3B0E0E1E3F0E0808160
:100BC00080618C93A2E3B0E0E2E3F0E080818F7E6D
:100BD0008C93A2E3B0E0E2E3F0E080818F7E8C931F
:100BE00060E971E080E090E08CDDA1E3B0E0E1E35A
:100BF000F0E0808180628C93A2E3B0E0E2E3F0E079
:100C000080818F7D8C9360E971E080E090E079DDF8
:100C1000A1E3B0E0E1E3F0E080818F7E8C93A2E37A
:100C2000B0E0E2E3F0E080818F7E8C930000E0E3AF
:100C3000F0E08081882F90E0807190700097B1F78C
:100C40008A819B8181709070009741F4A2E3B0E0AB
:100C5000E2E3F0E080818F7D8C9307C0A2E3B0E0F7
:100C6000E2E3F0E0808180628C930000E0E3F0E05A
:100C70008081882F90E0807190700097B1F3000020
:100C8000E0E3F0E08081882F90E080719070009721
:100C9000B1F78A819B8182709070009741F4A2E342
:100CA000B0E0E2E3F0E080818F7D8C9307C0A2E3A7
:100CB000B0E0E2E3F0E0808180628C930000E0E34A
:100CC000F0E08081882F90E0807190700097B1F300
:100CD0000000E0E3F0E08081882F90E08071907068
:100CE0000097B1F78A819B8184709070009741F4DE
:100CF000A2E3B0E0E2E3F0E080818F7D8C9307C057
:100D0000A2E3B0E0E2E3F0E0808180628C93000037
:100D1000E0E3F0E08081882F90E080719070009790
:100D2000B1F30000E0E3F0E08081882F90E0807173
:100D300090700097B1F78A819B81887090700097BE
:100D400041F4A2E3B0E0E2E3F0E080818F7D8C9398
:100D500007C0A2E3B0E0E2E3F0E0808180628C9320
:100D60000000E0E3F0E08081882F90E080719070D7
:100D70000097B1F30000E0E3F0E08081882F90E07D
:100D8000807190700097B1F78A819B81807190701B
:100D9000009741F4A2E3B0E0E2E3F0E080818F7DD0
:100DA0008C9307C0A2E3B0E0E2E3F0E080818062D0
:100DB0008C930000E0E3F0E08081882F90E0807168
:100DC00090700097B1F30000E0E3F0E08081882F9D
:100DD00090E0807190700097B1F78A819B8180725A
:100DE0009070009741F4A2E3B0E0E2E3F0E080818C
:100DF0008F7D8C9307C0A2E3B0E0E2E3F0E0808156
:100E000080628C930000E0E3F0E08081882F90E026
:100E1000807190700097B1F30000E0E3F0E0808112
:100E2000882F90E0807190700097B1F78A819B8144
:100E300080749070009741F4A2E3B0E0E2E3F0E048
:100E400080818F7D8C9307C0A2E3B0E0E2E3F0E005
:100E5000808180628C930000E0E3F0E08081882F45
:100E600090E0807190700097B1F30000E0E3F0E053
:100E70008081882F90E0807190700097B1F78A810F
:100E80009B8180789070009741F4A2E3B0E0E2E3A8
:100E9000F0E080818F7D8C9307C0A2E3B0E0E2E3B5
:100EA000F0E0808180628C930000E0E3F0E08081DC
:100EB000882F90E0807190700097B1F30000E0E31C
:100EC000F0E08081882F90E0807190700097B1F7FA
:100ED0008A81082E82958025082E86958695802504
:100EE00089838981882F90E00196959587958170F7
:100EF0009070009741F4A2E3B0E0E2E3F0E080817B
:100F00008F7D8C9307C0A2E3B0E0E2E3F0E0808144
:100F100080628C930000E0E3F0E08081882F90E015
:100F2000807190700097B1F30000E0E3F0E0808101
:100F3000882F90E0807190700097B1F7A2E3B0E045
:100F4000E2E3F0E0808180628C930000E0E3F0E077
:100F50008081882F90E0807190700097B1F3A1E3B9
:100F6000B0E0E1E3F0E080818F7D8C93A2E3B0E01C
:100F7000E2E3F0E080818F7D8C93A1E3B0E0E1E3D8
:100F8000F0E080818F7E8C93A2E3B0E0E2E3F0E0BA
:100F900080818F7E8C930000E0E3F0E08081882FD9
:100FA00090E0807190700097B1F70000E0E3F0E00E
:100FB0008081882F90E0807190700097B1F30F903E
:100FC0000F900F90CF91DF91089580919F009091A5
:100FD000A000089583EF90E0D8DDB8DB9093A000E7
:100FE00080939F008A3F910509F04BC088EC90E008
:100FF000CCDDACDB9093A00080939F008A3F9105ED
:1010000009F03FC083EF90E0C0DDA0DB9093A0002B
:1010100080939F008A3F9105A1F588EC90E0B5DDB3
:1010200095DB9093A00080939F008A3F910549F53E
:1010300083EF90E0AADD8ADB9093A00080939F006D
:101040008A3F9105F1F480E590E09FDD7FDB90938E
:10105000A00080939F008A3F910599F482EF90E071
:1010600094DD74DB9093A00080939F008A3F9105EC
:1010700041F46CDB9093A2008093A10021E030E06A
:1010800002C020E030E0C901089583EF90E07DDDEB
:101090005DDB9093A00080939F008A3F910509F04B
:1010A0004BC088EC90E071DD51DB9093A000809301
:1010B0009F008A3F910509F03FC083EF90E065DD16
:1010C00045DB9093A00080939F008A3F9105A1F596
:1010D00084E690E05ADD3ADB9093A00080939F0075
:1010E0008A3F910549F583EF90E04FDD2FDB909328
:1010F000A00080939F008A3F9105F1F480E590E085
:1011000044DD24DB9093A00080939F008A3F9105EB
:1011100099F482EF90E039DD19DB9093A000809381
:101120009F008A3F910541F411DB9093A2008093C8
:10113000A10021E030E002C020E030E0C9010895C4
:10114000892B19F087EE90E002C086EE90E01DDD5D
:10115000FDDA9093A00080939F0020E030E08A3F6A
:10116000910511F421E030E0C9010895CF93DF9398
:10117000EC0188EE90E009DDE9DA9093A00080931D
:101180009F008A3F910519F020E030E00EC0CE01AB
:10119000FCDCDCDA9093A00080939F0020E030E03C
:1011A0008A3F910511F421E030E0C901DF91CF9130
:1011B00008950F931F93CF93DF93EC0189EE90E096
:1011C000E4DCC4DA9093A00080939F008A3F9105ED
:1011D00019F020E030E040C01092A00010929F0073
:1011E000B5DA8C01B3DA9D878C87B0DA9F878E875A
:1011F000C8018470907095958795959587959F8384
:101200008E83C8018270907095958795998788879D
:10121000C801817090709B878A87C8018071907027
:1012200034E0959587953A95E1F79D838C83C801C5
:101230008072907025E0959587952A95E1F79B83BC
:101240008A830074107086E0159507958A95E1F7FA
:101250001983088321E030E0C901DF91CF911F910C
:101260000F9108958AEE90E090DC70DA9093A000E0
:1012700080939F008A3F910519F020E030E00AC07A
:101280001092A00010929F001092A4001092A30050
:1012900021E030E0C90108950F931F93CF93DF93AE
:1012A0008C018091A3009091A400009779F00197A0
:1012B00009F089C08BEE90E068DC48DA9093A000DA
:1012C00080939F008A3F910509F07DC03FDAEC01D1
:1012D0003DDA3CDA8091A1009091A200892B11F0B7
:1012E00035DAAC01CE018071907064E0880F991FEF
:1012F0006A95E1F7909581959F4FF80191838083DE
:10130000CE018072907033E0880F991F3A95E1F713
:10131000909581959F4F93838283CE0181709070C9
:1013200097838683CE018470907095958795959567
:10133000879591878087C270D070D595C795D387E0
:10134000C2878091A1009091A2008330910579F429
:10135000CA0188709070A5E0880F991FAA95E1F7DF
:1013600047705070481B590B5583448325C0049720
:1013700019F5CA0188709070E5E0880F991FEA9509
:10138000E1F79A0127703070281B390BF80135837B
:101390002483CA018071907074E0959587957A9541
:1013A000E1F7958784874072507065E055954795C1
:1013B0006A95E1F7578746871092A00010929F0028
:1013C00021E030E002C020E030E0C901DF91CF91A0
:1013D0001F910F9108958CEE90E0D7DBB7D99093D1
:1013E000A00080939F008A3F910519F020E030E033
:1013F0000EC01092A00010929F008091A5009091C5
:10140000A6009093A4008093A30021E030E0C901DE
:1014100008958EEE90E0B9DB99D99093A000809367
:101420009F008A3F910519F020E030E014C010922F
:10143000A00010929F008091A3009091A40090932F
:10144000A6008093A50082E090E09093A400809392
:10145000A30021E030E0C901089580EF90E095DB22
:1014600075D99093A00080939F008A3F910519F051
:1014700020E030E00CC01092A00010929F0081E0AC
:1014800090E09093A4008093A30021E030E0C90194
:10149000089582EF90E079DB59D99093A000809372
:1014A0009F008A3F910519F020E030E00AC01092B9
:1014B000A00010929F004AD99C019093A2008093B3
:1014C000A100C9010895CF93DF93EC0183EF90E071
:1014D0005CDB3CD99093A00080939F008A3F9105EC
:1014E00089F4CE0152DB32D99093A00080939F0003
:1014F0008A3F910539F41092A00010929F0021E0DC
:1015000030E002C020E030E0C901DF91CF910895C2
:1015100084EF90E03ADB1AD99093A00080939F006B
:101520008A3F910519F020E030E006C01092A0003B
:1015300010929F0021E030E0C901089585EF90E00E
:1015400024DB04D99093A00080939F008A3F9105EB
:1015500019F020E030E006C01092A00010929F0029
:1015600021E030E0C901089586EF90E00EDBEED86F
:101570009093A00080939F008A3F910519F020E08E
:1015800030E006C01092A00010929F0021E030E0F1
:10159000C90108958EEF90E0F8DAD8D80895D6D82A
:1015A0009093A00080939F008A3A910519F020E063
:1015B00030E00BC0CBD89093A2008093A100109292
:1015C000A4001092A30021E030E0C90108958FEF3C
:1015D00090E0DBDABBD89093A00080939F008A3F15
:1015E0009105C1F4B3D89093A00080939F008A3AEC
:1015F000910581F41092A00010929F00A7D89093BB
:10160000A2008093A1001092A4001092A30021E0F8
:1016100030E002C020E030E0C90108958FEF85BBC3
:1016200014BA089591E0909364009093650083B399
:10163000806C8095809363009093BB009093BC0076
:101640008093BD0008958FEF87BB88BB089588BB4A
:1016500008958EE028E130E00FB6F894A89521BDFA
:101660000FBE81BD539A83E389B954D58B9A20E08C
:1016700040EA5FE004C0A895CA010197F1F7215044
:10168000D1F78B98789480E160E070E040E0FCD77F
:101690000895862F0895FC018081D9DF81E00895A7
:1016A000CF93DF93682FC82FD92F86E6792F48E094
:1016B000EBD7888180768032D1F48981813041F402
:1016C0008BEB90E0909384008093830083E010C0C4
:1016D000823041F486E690E090938400809383000A
:1016E00081E006C08A3019F48B81809366008FEF09
:1016F000DF91CF910895DF93CF93CDB7DEB78EDF23
:10170000A2DFA7DF80E0A3DFA89522D0009741F0F9
:1017100081E09DDF81E060E070E040E0B5D707C088
:1017200082E095DF82E060E070E040E0ADD7A89510
:101730002FD578DF5CD080917400882F90E0807185
:1017400090700097A1F38BEB90E063E0F0D4EFCFC3
:10175000DF93CF9300D0CDB7DEB78AE060E070E0D2
:1017600040E092D7F3D79093B4008093B300809178
:10177000B3009091B4008A3A910519F01A82198247
:101780002FC0E4D79093A2008093A10080EF90E057
:10179000FCD9DCD79093AC008093AB0081E090E063
:1017A000909368008093670023EB30E08AE0B901F2
:1017B00041E06AD721EA30E08AE0B90141E064D72C
:1017C0002BEA30E08AE0B90141E05ED727E630E05D
:1017D0008AE0B90141E058D781E090E09A8389839B
:1017E00089819A810F900F90CF91DF910895DF93B7
:1017F000CF93CDB7DEB78BE060E070E041E044D737
:101800001092AC001092AB0080916700909168003C
:101810008130910541F48BEE90E0B7D997D7909342
:10182000AC008093AB002BEA30E08BE0B90141E0E3
:101830002BD78091AB009091AC008A3F910539F095
:101840008091670090916800009709F088C07ED76A
:101850009093AE008093AD0079D79093AA008093C7
:10186000A90074D79093B2008093B1008091AD002D
:101870009091AE0080719070009751F08091A90016
:101880009091AA00805091409093AA008093A90063
:101890008091AD009091AE0080729070009751F0F1
:1018A0008091B1009091B200805091409093B2002D
:1018B0008093B1002091AF003091B0008091A900D9
:1018C0009091AA00820F931F9093B0008093AF0075
:1018D0002091B9003091BA008091B1009091B2008E
:1018E000820F931F9093BA008093B9008091AD004E
:1018F0009091AE0081709070882339F081E090E083
:101900009093B6008093B50004C01092B600109278
:10191000B5008091AD009091AE00847090700097FA
:1019200039F081E090E09093A8008093A70004C074
:101930001092A8001092A7008091AD009091AE0087
:1019400082709070009739F081E090E09093B80039
:101950008093B70004C01092B8001092B700CF91E6
:08196000DF910895F894FFCF18
:021968005AFF24
:00000001FF
