:100000006DC021C286C085C084C083C082C081C04B
:1000100080C07FC07EC07DC07CC07BC07AC079C0FC
:1000200078C077C076C00403090412034E00610053
:10003000670069002D0053007900730028034E000B
:10004000610067006900200046006900740020001C
:1000500043006F006E00740072006F006C006C0053
:10006000650072001201100100000008EDFEEFBEF5
:1000700000010102000109022200010100800A09B9
:1000800004000001030000000921010100012243D6
:10009000000705810308006405010905A1010901A4
:1000A000A10009300931150026020095027508816A
:1000B00002C00509190129061500250195067501DB
:1000C00081029507750181019505750105081901E2
:1000D00029059102950175039101C00011241FBEED
:1000E000CFE5D4E0DEBFCDBF10E0A0E6B0E0ECECA1
:1000F000FAE102C005900D92AA36B107D9F710E0D7
:10010000AAE6B0E001C01D92AA3CB107E1F75BD6B8
:10011000DBCC76CF85B7826085BF8BB780648BBF21
:100120008BE480937D008AE580937C0008951F9383
:10013000DC01162F80917C0084FF07C080917D0038
:1001400098E8892780937D0003C08AE580937C002E
:10015000912FEEE7F0E08D91819391501916DCF329
:100160008EE790E0612F6BD11C5F6CE770E010931D
:100170007C00CB0123E0959587952A95E1F7837064
:1001800011508F5D6F5F7F4F412F7ED21F91089579
:100190001F93CF93DF9340918D00142F135017FDC1
:1001A000C5C080918A00CCE0D0E0C81BD109CF56F1
:1001B000DF4F809189008F704150805FBE0164D213
:1001C000809189008D3209F09EC0183009F0ACC0D2
:1001D00083EC809371008AE58093600010926A003E
:1001E0008881807639F0CE01C3D5282F8F3F09F45E
:1001F00079C07FC09A8110927A008981882321F486
:1002000010927B0022E067C0853019F490938E0035
:1002100061C0863009F04AC08B81813019F484E6D0
:1002200090E01BC0823041F486E790E090938C0010
:1002300080938B0022E236C08330F9F48A818823D0
:1002400041F486E290E090938C0080938B0024E050
:1002500029C0813041F48AE290E090938C00809331
:100260008B0022E11FC08230E1F48CE390E0909398
:100270008C0080938B0028E215C0813241F488E81D
:1002800090E090938C0080938B0029E00BC0823229
:1002900041F488E990E090938C0080938B0023E4F4
:1002A00001C020E080E480936A0023C0883021F4FC
:1002B00021E080E990E011C0893019F4909390001A
:1002C00009C08A3011F421E006C08B3019F48BE4A8
:1002D00080937D0020E08AE790E090938C008093EB
:1002E0008B0007C0888187FD2E8180E880936A009B
:1002F00006C08F81882319F46E81621708F0622F7F
:100300006093610011C080916A0087FF0DC0CE012B
:10031000612F29D58F3F21F48EE18093600004C0C6
:10032000882311F01092610010928D00809160007E
:1003300084FF5DC0809161008F3F09F458C0182F81
:10034000893008F018E0811B809361008091710072
:1003500098E8892780937100112391F180916A00B8
:1003600087FF08C082E790E0612FFBD4182F893007
:1003700098F526C020918B0030918C0086FF0DC02F
:10038000A2E7B0E080E090E0F901E80FF91FE49106
:10039000ED9301961817C1F708C0912FD901E2E734
:1003A000F0E08D9181939150E1F71150812F90E011
:1003B0001F5F0196820F931F90938C0080938B0098
:1003C00082E790E0612F3BD0412F4C5F4C3041F0F1
:1003D0008FEF8093610004C08FEF809361004EE146
:1003E00040936000415080E261E770E04DD194E1BC
:1003F00080B38C7059F49150D9F710928E001092FE
:1004000088008FEF60E070E040E03ED1DF91CF9157
:100410001F910895A82FB92F80E090E041E050EAA5
:10042000609530E009C02D9182279795879510F04F
:1004300084279527305EC8F36F5FA8F30895EADF3D
:100440008D939D930895CF93CFB7CF93DF93C395AB
:10045000839BE9F7839B0BC0839B09C0839B07C0E9
:10046000839B05C0839B03C0839B01C08BC06F939C
:10047000C0918A00DD27CF56DF4F2F9365E5839B20
:1004800003C02F916F91E6CF0F931F934F9320E0FE
:1004900040E15F9300B30C7003FB27F93F9350E0FA
:1004A0003BE039C01C7040642F77012F5F5F1EC096
:1004B000406810B31C702F7752501FC0406400B3C7
:1004C0002F770C70D1F15F5F00C023C0406210B382
:1004D0002F771C7091F15F5F00C025C00C70102752
:1004E000515012F45D5F0000115027952C3F10B35E
:1004F000C8F61C700127015027952C3FC8F64227EB
:10050000499300B30C7010274F73115027952C3F5F
:10051000A8F64695469510B31C7079F00127015056
:1005200027952C3F98F66B5A60F3315000B3B0F624
:1005300000C010E41ABF002719C03B503195C31BFF
:10054000D04010E41ABF0881033C09F10B34F9F0E4
:10055000209188001981110F1213EDCF4A81441F99
:10056000093651F10D3211F0013E29F700938F0049
:100570003F915F914F911F910F912F916F91CAB74A
:10058000C6FD65CFDF91CF91CFBFCF911895209158
:100590008F00222369F310918D00112391F53430DF
:1005A00092F130938D002093890010918A003BE0F6
:1005B000311B30938A0027C000918D0001300CF56B
:1005C0000AE54F7049F43091600034FD1DC000937E
:1005D0006000C1E7D0E01CC030917C0034FD14C045
:1005E00000937C00CDE7D0E013C0052710E000C0E9
:1005F000000002BB1AC0052710E0221F1DC010E03A
:1006000021C04AE502C032ED432FC4E1D0E032E020
:1006100011B31C60939A02B311BB5CE020E865E360
:1006200020FF052702BB279517951C3FF0F666951E
:10063000B8F7B1F720FF052702BB279517951C3F98
:10064000D0F62795179517FF052700001C3F02BB22
:10065000B0F629913A9519F7037F10918E00110F8A
:10066000C651D04002BB11F01093880010E41ABFAD
:10067000086011B3137F402F437F54E05A95F1F780
:1006800002BB11BB42BB74CFFB01982F92959F70A8
:100690009A3008F0995D5D9BFECF905D9CB98F709C
:1006A0008A3008F0895D5D9BFECF805D8CB95D9BD3
:1006B000FECF8AE38CB920E219C05D9BFECF2CB936
:1006C0009081892F82958F708A3008F0895D5D9BBB
:1006D000FECF805D8CB9892F8F708A3008F0895DDC
:1006E0005D9BFECF3196805D8CB94150442329F744
:1006F0005D9BFECF8DE08CB95D9BFECF8AE08CB90F
:100700000895DF93CF930F92CDB7DEB78983A1E32E
:10071000B0E0E1E3F0E0808180628C9389818823FE
:1007200041F4A2E3B0E0E2E3F0E080818F7D8C93BE
:100730000AC08981813039F4A2E3B0E0E2E3F0E05D
:10074000808180628C930F90CF91DF910895DF9329
:10075000CF930F92CDB7DEB78983A1E3B0E0E1E399
:10076000F0E0808180618C938981882341F4A2E349
:10077000B0E0E2E3F0E080818F7E8C930AC0898153
:10078000813039F4A2E3B0E0E2E3F0E080818061FF
:100790008C930F90CF91DF910895DF93CF930F92B9
:1007A000CDB7DEB7898301C00000E0E3F0E08081CF
:1007B000882F90E080719070959587959595879595
:1007C0009595879595958795009771F7898199DF1C
:1007D00001C00000E0E3F0E08081882F90E08071AC
:1007E000907095958795959587959595879595950D
:1007F0008795009771F30F90CF91DF910895DF9364
:10080000CF930F92CDB7DEB701C00000E0E3F0E078
:100810008081882F90E0807190709595879595954F
:1008200087959595879595958795009771F7E0E35E
:10083000F0E08081882F90E0807290709595879588
:100840009595879595958795959587959595879590
:10085000898301C00000E0E3F0E08081882F90E010
:1008600080719070959587959595879595958795C5
:1008700095958795009771F389810F90CF91DF91BE
:100880000895DF93CF9300D0CDB7DEB78A8381E0A0
:1008900089838A81982F91708981892789838A81A8
:1008A000882F90E08270907095958795982F898118
:1008B000892789838A81882F90E08470907095952C
:1008C000879595958795982F8981892789838A812E
:1008D000882F90E08870907095958795959587956D
:1008E00095958795982F8981892789838A81882F73
:1008F00090E08071907095958795959587959595E1
:10090000879595958795982F8981892789838A81ED
:10091000882F90E080729070959587959595879532
:10092000959587959595879595958795982F898124
:10093000892789838A81882F90E080749070082E9F
:10094000892F000C881F990B000C881F991F982F66
:100950008981892789838A81881F8827881F982F02
:1009600089818927898389810F900F90CF91DF91A9
:100970000895DF93CF93CDB7DEB76A970FB6F8949B
:10098000DEBF0FBECDBF8A8F8A8D7BDF898F80E06F
:10099000DEDE80E090E0A6E1B3E48D8B9E8BAF8B32
:1009A000B88F6D897E898F89988D2BEA3AEA4AEA59
:1009B00050E43FD4DC01CB01898B9A8BAB8BBC8B91
:1009C00069897A898B899C8920E030E040E85FE37F
:1009D00022D688231CF481E0888B88C069897A89B3
:1009E0008B899C8920E030E04FE753E4BED5181690
:1009F0000CF074C06D897E898F89988D20E030E07D
:100A00004AE754E40BD5DC01CB018C879D87AE8788
:100A1000BF876C857D858E859F8520E030E04AE725
:100A200055E407D4DC01CB0188879987AA87BB8767
:100A3000688579858A859B8520E030E040E85FE322
:100A4000EAD588232CF481E090E09F838E833BC01D
:100A5000688579858A859B8520E03FEF4FE757E4DD
:100A600084D518163CF56C857D858E859F8520E0A4
:100A700030E040E251E4DDD3DC01CB01BC01CD012B
:100A800014D2DC01CB019F838E830FC080E991E0FB
:100A90009D838C838C819D810197F1F79D838C834D
:100AA0008E819F8101979F838E838E819F81009786
:100AB00069F722C0688579858A859B85F6D1DC0136
:100AC000CB019F838E838E819F819B838A838A81C2
:100AD0009B810197F1F79B838A830EC069897A898C
:100AE0008B899C89E2D1DC01CB01888B8889898341
:100AF00089818A95F1F7898380E003DE81E027DE32
:100B0000A1E3B0E0E1E3F0E080818F7E8C93A2E38B
:100B1000B0E0E2E3F0E0808180618C938A8D8170A7
:100B20003CDE8A8D882F90E0827090709595879535
:100B300034DE8A8D882F90E084709070959587952B
:100B4000959587952ADE8A8D882F90E08870907021
:100B50009595879595958795959587951EDE8A8DB0
:100B6000882F90E0807190709595879595958795E1
:100B7000959587959595879510DE8A8D882F90E0BD
:100B800080729070959587959595879595958795A1
:100B9000959587959595879500DE8A8D882F90E0AD
:100BA00080749070082E892F000C881F990B000C00
:100BB000881F991FF2DD8A8D881F8827881FEDDD29
:100BC000898DEBDD81E0E9DDA1E3B0E0E1E3F0E078
:100BD00080818F7D8C93A2E3B0E0E2E3F0E080813E
:100BE00080628C930CDE882311F08A8DC2DE6A96B7
:100BF0000FB6F894DEBF0FBECDBFCF91DF91089541
:100C0000DF93CF9300D0CDB7DEB71A82F8DDF7DDE2
:100C1000982F8A81892B8A83F2DD882F90E0880FB4
:100C2000991F982F8A81892B8A83E9DD882F90E08C
:100C3000880F991F880F991F982F8A81892B8A8383
:100C4000DEDD882F90E0880F991F880F991F880F8D
:100C5000991F982F8A81892B8A83D1DD882F90E074
:100C600082959295907F9827807F9827982F8A81E8
:100C7000892B8A83C4DD882F90E0880F991F829585
:100C80009295907F9827807F9827982F8A81892B2B
:100C90008A83B5DD882F90E0002496958795079488
:100CA000969587950794982F802D982F8A81892B68
:100CB0008A83A5DD882F90E09695982F88279795B1
:100CC0008795982F8A81892B8A8399DD898397DD7F
:100CD0008A81D7DD982F8981981711F08EEF49DE30
:100CE0008A810F900F90CF91DF9108958FEF85BB90
:100CF00014BA089591E090936C0090936D0083B3C3
:100D0000806C809580936B009093C7009093C8008F
:100D10008093C90008958FEF87BB88BB089588BB77
:100D200008958EE028E130E00FB6F894A89521BD33
:100D30000FBE81BD539A83E389B9ECD98B9A20E029
:100D400040EA5FE004C0A895CA010197F1F721507D
:100D5000D1F78B98789480E160E070E040E094DC1B
:100D60000895862F0895FC018081D9DF81E00895E0
:100D7000CF93DF93682FC82FD92F86E6792F48E0CD
:100D800083DC888180768032D1F48981813041F49E
:100D900087EC90E090938C0080938B0083E010C0F0
:100DA000823041F48EE690E090938C0080938B002B
:100DB00081E006C08A3019F48B8180936E008FEF3A
:100DC000DF91CF9108950F931F93DF93CF93CDB70A
:100DD000DEB78CDFA0DFA5DF80E0A1DFA89540D0E3
:100DE000009741F081E09BDF81E060E070E040E04F
:100DF0004BDC07C082E093DF82E060E070E040E01F
:100E000043DCA895C5D976DF80917C00882F90E0DF
:100E1000807190700097A9F3A8958BEEAADDF0DEA3
:100E20001092BE000EC08091BE00082F10E0E8DED8
:100E3000F801E754FF4F80838091BE008F5F80935D
:100E4000BE008091BE00833070F329EB30E08DED61
:100E5000B90143E019DC87EC90E063E068D9D1CFB9
:100E6000DF93CF93CDB7DEB78AE060E070E040E07B
:100E70000BDC8FEF7EDDC4DEC3DEC2DE84EF79DD06
:100E8000BFDE80EF76DDBCDE882F90E09093B4006B
:100E90008093B30023EB30E08AE0B90141E0F4DB5A
:100EA00081E090E0CF91DF910895EF92FF920F9350
:100EB0001F937B018C0120E030E040E05FE480D3B1
:100EC00088237CF0C801B70120E030E040E05FE417
:100ED0005ED1CCD39B01AC01205030404040504803
:100EE00005C0C801B701C2D39B01AC01B901CA0159
:100EF0001F910F91FF90EF900895A0E0B0E0E2E81D
:100F0000F7E0ABC5DC012B01FA019C91923008F4AB
:100F100039C1EB018881823008F433C1943069F41F
:100F2000843009F02FC111969C91119789819817EF
:100F300009F428C1A2E6B0E025C1843009F421C13A
:100F40008230A9F4923009F01DC19A01AD0188E008
:100F5000EA010990AE01E90109929E018150C1F7B1
:100F6000E201898111969C918923818308C1923085
:100F700009F407C112962D903C901397EB018A81DA
:100F80009B811496AD90BD90CD90DC901797EC802E
:100F9000FD800E811F819101281B390BB90137FF9C
:100FA00004C066277727621B730B603271050CF053
:100FB00061C0121613066CF537014801062E04C0F5
:100FC00096948794779467940A94D2F721E030E05E
:100FD00040E050E004C0220F331F441F551F6A95A4
:100FE000D2F721503040404050402E213F21402335
:100FF0005123211531054105510521F021E030E053
:1010000040E050E079018A01E628F72808291929EB
:101010003CC0232BD1F1260E371E35014601062E8A
:1010200004C096948794779467940A94D2F721E049
:1010300030E040E050E004C0220F331F441F551F32
:101040006A95D2F721503040404050402A213B2140
:101050004C215D21211531054105510521F021E08B
:1010600030E040E050E059016A01A628B728C828BE
:10107000D9280BC0821593052CF01C01AA24BB248F
:10108000650103C0EE24FF24870111969C91D201D3
:1010900011968C91981709F445C0992339F0A8014D
:1010A00097012A193B094C095D0906C0A601950163
:1010B0002E193F09400B510B57FD08C01182338296
:1010C000228224833583468357831DC081E0818338
:1010D0003382228288279927DC01821B930BA40B81
:1010E000B50B84839583A683B7830DC0220F331F6E
:1010F000441F551F24833583468357838281938100
:101100000197938382832481358146815781DA0157
:10111000C9010197A109B1098F5F9F4FAF4FBF432D
:1011200028F30BC0918333822282EA0CFB1C0C1D36
:101130001D1DE482F5820683178383E0808324816A
:1011400035814681578157FF1AC0C901AA2797FDEB
:10115000A095BA2F81709070A070B0705695479589
:1011600037952795822B932BA42BB52B84839583BE
:10117000A683B78382819381019693838283DF0163
:1011800001C0D201CD01CDB7DEB7E2E182C4A0E259
:10119000B0E0ECECF8E06DC469837A838B839C83C8
:1011A0002D833E834F835887E9E0EE2EF12CEC0E21
:1011B000FD1ECE010196B7017FD38E010F5E1F4F3A
:1011C000CE010596B80178D38A8991E089278A8B68
:1011D000C701B801AE01475E5F4F8FDE98D2A0967F
:1011E000E6E063C4A0E2B0E0E7EFF8E042C4698360
:1011F0007A838B839C832D833E834F835887F9E0CA
:10120000EF2EF12CEC0EFD1ECE010196B70154D34A
:101210008E010F5E1F4FCE010596B8014DD3C70159
:10122000B801AE01475E5F4F68DE71D2A096E6E07E
:101230003CC4A0E2B0E0EEE1F9E00FC469837A8338
:101240008B839C832D833E834F835887CE010196E9
:10125000BE01675F7F4F30D3CE010596BE016F5E42
:101260007F4F2AD39985923088F089898230C8F0DF
:10127000943019F4823051F404C0843029F492304F
:1012800081F482E690E0C6C0923049F420E09A856D
:101290008A89981321E02A87CE010996BBC0823043
:1012A00049F420E09A858A89981321E02A8BCE019F
:1012B0004196B0C02D843E844F8458886D887E88C6
:1012C0008F88988CEE24FF248701AA24BB24650113
:1012D00040E050E060E070E0E0E0F0E0C1018170EB
:1012E0009070892BE9F0E60CF71C081D191D9A0176
:1012F000AB012A0D3B1D4C1D5D1D80E090E0A0E080
:10130000B0E0E614F7040805190520F481E090E048
:10131000A0E0B0E0BA01A901480F591F6A1F7B1F66
:10132000AA0CBB1CCC1CDD1C97FE08C081E090E021
:10133000A0E0B0E0A82AB92ACA2ADB2A3196E03216
:10134000F10549F0660C771C881C991C569447944B
:1013500037942794C3CFFA85EA892B893C898B85FA
:101360009C85280F391F2E5F3F4F17C0CA0181701F
:101370009070892B61F016950795F794E79480E0BB
:1013800090E0A0E0B0E8E82AF92A0A2B1B2B76951A
:101390006795579547952F5F3F4F77FDE7CF0CC077
:1013A000440F551F661F771F17FD4160EE0CFF1C91
:1013B000001F111F21503040403090E0590790E04D
:1013C000690790E4790760F32B8F3C8FDB01CA013A
:1013D0008F779070A070B07080349105A105B10531
:1013E00061F447FD0AC0E114F1040105110529F07B
:1013F000405C5F4F6F4F7F4F40781A8EFE1711F0A1
:1014000081E08A8F4D8F5E8F6F8F78A383E0898F05
:10141000CE0149967CD1A096E2E13BC3A8E1B0E0C1
:10142000E3E1FAE022C369837A838B839C832D8373
:101430003E834F835887B9E0EB2EF12CEC0EFD1E56
:10144000CE010196B70138D28E010F5E1F4FCE013B
:101450000596B80131D22985223008F47EC0398939
:10146000323010F4B8017CC08A859A8989278A872E
:10147000243011F0223031F4231709F06EC062E6F7
:1014800070E06EC0343039F41D861E861F86188ABF
:101490001C861B8604C0323021F484E08987B701A2
:1014A0005FC02B853C858B899C89281B390B3C8729
:1014B0002B87ED84FE840F851889AD88BE88CF8880
:1014C000D88CEA14FB040C051D0540F4EE0CFF1C3F
:1014D000001F111F215030403C872B8720E030E057
:1014E00040E050E080E090E0A0E0B0E460E070E038
:1014F000EA14FB040C051D0540F0282B392B4A2B60
:101500005B2BEA18FB080C091D09B695A795979562
:101510008795EE0CFF1C001F111F6F5F7F4F6F310F
:10152000710531F7DA01C9018F779070A070B07042
:1015300080349105A105B10561F427FD0AC0E114CD
:10154000F1040105110529F0205C3F4F4F4F5F4F1B
:1015500020782D873E874F87588BBE01675F7F4F6E
:10156000CB01D5D06896EAE09CC2A8E1B0E0EAEBF6
:10157000FAE07FC269837A838B839C832D833E83C9
:101580004F83588789E0E82EF12CEC0EFD1ECE012A
:101590000196B70191D18E010F5E1F4FCE010596C6
:1015A000B8018AD18985823038F08989823020F06B
:1015B000C701B801F9D101C08FEF6896E6E075C2A6
:1015C000A8E1B0E0E5EEFAE054C269837A838B8348
:1015D0009C832D833E834F83588789E0E82EF12C2E
:1015E000EC0EFD1ECE010196B70166D18E010F5E95
:1015F0001F4FCE010596B8015FD18985823038F042
:101600008989823020F0C701B801CED101C08FEFA7
:101610006896E6E04AC2A8E1B0E0E0E1FBE029C25A
:1016200069837A838B839C832D833E834F83588782
:1016300089E0E82EF12CEC0EFD1ECE010196B701DB
:101640003BD18E010F5E1F4FCE010596B80134D1FC
:101650008985823038F08989823020F0C701B8014D
:10166000A3D101C081E06896E6E01FC2ACE0B0E023
:10167000EBE3FBE002C269837A838B839C83CE0118
:101680000196BE016B5F7F4F17D18D81823061F172
:10169000823050F1843021F48E81882351F12EC0A4
:1016A0002F81388537FD20C06E812F3131051CF028
:1016B0006623F9F023C08EE190E0821B930B29850D
:1016C0003A854B855C8504C0569547953795279597
:1016D0008A95D2F76623B1F05095409530952195C3
:1016E0003F4F4F4F5F4F0EC020E030E040E050E0F2
:1016F00009C02FEF3FEF4FEF5FE704C020E030E07D
:1017000040E050E8B901CA012C96E2E0D2C1DF9274
:10171000EF92FF920F931F93FC01E480F580068106
:101720001781D1808081823048F480E090E0A0E190
:10173000B0E0E82AF92A0A2B1B2BA5C0843009F453
:101740009FC0823021F4EE24FF24870105C0E114FC
:10175000F1040105110519F4E0E0F0E096C06281A2
:1017600073819FEF623879070CF05BC022E83FEF8E
:10177000261B370B2A3131052CF020E030E040E009
:1017800050E02AC0B801A701022E04C076956795E3
:10179000579547950A94D2F781E090E0A0E0B0E039
:1017A00004C0880F991FAA1FBB1F2A95D2F7019763
:1017B000A109B1098E219F21A023B1230097A10582
:1017C000B10521F081E090E0A0E0B0E09A01AB012A
:1017D000282B392B4A2B5B2BDA01C9018F779070AC
:1017E000A070B07080349105A105B10539F427FFD0
:1017F00009C0205C3F4F4F4F5F4F04C0215C3F4FFB
:101800004F4F5F4FE0E0F0E02030A0E03A07A0E06B
:101810004A07A0E45A0710F0E1E0F0E079018A01FC
:1018200027C06038710564F5FB01E158FF4FD8010E
:10183000C7018F779070A070B07080349105A105BA
:10184000B10539F4E7FE0DC080E490E0A0E0B0E01F
:1018500004C08FE390E0A0E0B0E0E80EF91E0A1F9C
:101860001B1F17FF05C016950795F794E79431964F
:1018700087E016950795F794E7948A95D1F705C008
:10188000EE24FF248701EFEFF0E06E2F67956627C7
:101890006795902F9F77D794DD24D7948E2F8695C8
:1018A000492F462B582F5D29B701CA011F910F916F
:1018B000FF90EF90DF900895FC01DB0140815181A2
:1018C0002281622F6F7770E0221F2227221F9381CF
:1018D000892F880F822B282F30E0991F9927991F75
:1018E00011969C93119721153105A9F541155105C4
:1018F0006105710511F482E037C082E89FEF13960D
:101900009C938E9312979A01AB0167E0220F331FCD
:10191000441F551F6A95D1F783E08C930DC0220FA9
:10192000331F441F551F12968D919C911397019759
:1019300013969C938E931297203080E0380780E0B6
:10194000480780E4580758F314962D933D934D9320
:101950005C93179708952F3F310579F44115510590
:101960006105710519F484E08C93089564FF03C048
:1019700081E08C9312C01C9210C02F5730401396F8
:101980003C932E93129783E08C9387E0440F551F6E
:10199000661F771F8A95D1F7706414964D935D93F7
:1019A0006D937C93179708951F93DC01FB019C9125
:1019B000923008F447C08081823008F443C09430EC
:1019C00051F411961C91843099F58181682F70E053
:1019D000611B71093FC0843021F0923031F48230B4
:1019E000B9F18181882389F12DC011961C9111973D
:1019F0008230F1F081811817D9F412962D913C9123
:101A00001397828193818217930794F028173907DF
:101A1000BCF014968D919D910D90BC91A02D2481C8
:101A2000358146815781281739074A075B0718F423
:101A3000112341F00AC082179307A407B50740F4A9
:101A4000112319F061E070E005C06FEF7FEF02C075
:101A500060E070E0CB011F9108952F923F924F926A
:101A60005F926F927F928F929F92AF92BF92CF922E
:101A7000DF92EF92FF920F931F93CF93DF93CDB737
:101A8000DEB7CA1BDB0B0FB6F894DEBF0FBECDBFAF
:101A900009942A88398848885F846E847D848C8480
:101AA0009B84AA84B984C884DF80EE80FD800C8189
:101AB0001B81AA81B981CE0FD11D0FB6F894DEBF6C
:0C1AC0000FBECDBFED010895F894FFCFDC
:0A1ACC005AFF0000000000000000B7
:00000001FF
