:1000000086C00EC29FC09EC09DC09CC09BC09AC0AF
:1000100099C098C097C096C095C094C093C092C034
:1000200091C090C08FC00403090412034E00610008
:10003000670069002D0053007900730028034E000B
:10004000610067006900200046006900740020001C
:1000500043006F006E00740072006F006C006C0053
:10006000650072001201100100000008EDFEEFBEF5
:1000700000010102000109022200010100800A09B9
:1000800004000001030000000921010100012276A3
:10009000000705810308006405010902A1010902A6
:1000A000A1020901A1000509190129051500250171
:1000B00075019505810275039501810305010930DC
:1000C00009311581257F750895028106A10209482D
:1000D000150025013501450475029501A4B10209F9
:1000E000381581257F3500450075088106C0A102BD
:1000F0000948B4B102350045007504B103050C0A86
:1001000038021581257F75088106C0C0C0C0112442
:100110001FBECFE5D4E0DEBFCDBF10E0A0E6B0E06B
:10012000EAEAFCE002C005900D92A436B107D9F7C7
:1001300010E0A4E6B0E001C01D92A93AB107E1F7D2
:1001400078D5B1C55DCF85B7826085BF8BB7806438
:100150008BBF8BE4809374008AE5809373000895CD
:100160001F93CF93DF9340918400142F135017FDFA
:10017000A8C080918100CCE0D0E0C81BD109C8574D
:10018000DF4F809180008F704150805FBE0169D247
:10019000809180008D3209F092C0183009F08FC034
:1001A00083EC809368008AE580936000109264007D
:1001B0008881807621F0CE0112D5282F77C09A81D0
:1001C000109271008981882321F41092720022E03C
:1001D00067C0853019F49093850061C0863009F0BE
:1001E0004AC08B81813019F484E690E01BC08230D4
:1001F00041F486E790E0909383008093820022E2AE
:1002000036C08330F9F48A81882341F486E290E095
:10021000909383008093820024E029C0813041F4D0
:100220008AE290E0909383008093820022E11FC0D5
:100230008230E1F48CE390E090938300809382001D
:1002400028E215C0813241F488E890E09093830061
:100250008093820029E00BC0823241F488E990E06B
:10026000909383008093820026E701C020E080E421
:10027000809364001BC0883021F421E087E890E07F
:1002800011C0893019F49093870009C08A3011F4A5
:1002900021E006C08B3019F48BE48093740020E0D9
:1002A00081E790E090938300809382008F81882380
:1002B00021F46E81621708F4262F209361001092BA
:1002C00084008091600084FF4EC0809161008F3F68
:1002D00009F449C0182F893008F018E0811B809379
:1002E00061008091680098E8892780936800112355
:1002F00041F120918200309183008091640086FF5B
:100300000DC0A9E6B0E080E090E0F901E80FF91F28
:10031000E491ED9301961817C1F708C0912FD90108
:10032000E9E6F0E08D9181939150E1F71150812F32
:1003300090E01F5F0196820F931F9093830080933C
:10034000820089E690E0612F67D0412F4C5F4C30EE
:1003500019F08FEF8093610040936000415080E27C
:1003600068E670E07ED194E180B38C7059F49150CE
:10037000D9F71092850010927F008FEF60E070E057
:1003800040E06FD1DF91CF911F9108951F93DC0161
:10039000162F8091730084FF07C08091740098E845
:1003A00089278093740003C08AE580937300912F9E
:1003B000E5E7F0E08D91819391501916DCF385E724
:1003C00090E0612F29D01C5F63E770E01093730009
:1003D000CB0123E0959587952A95E1F7837011501D
:1003E0008F5D6F5F7F4F412F3CD11F910895A82FE4
:1003F000B92F80E090E041E050EA609530E009C01C
:100400002D9182279795879510F084279527305E48
:10041000C8F36F5FA8F30895EADF8D939D93089565
:10042000CF93CFB7CF93DF93C395839BE9F7839B9C
:100430000BC0839B09C0839B07C0839B05C0839B24
:1004400003C0839B01C08BC06F93C0918100DD27E7
:10045000C857DF4F2F9365E5839B03C02F916F91A2
:10046000E6CF0F931F934F9320E040E15F9300B3DB
:100470000C7003FB27F93F9350E03BE039C01C7040
:1004800040642F77012F5F5F1EC0406810B31C705F
:100490002F7752501FC0406400B32F770C70D1F1FA
:1004A0005F5F00C023C0406210B32F771C7091F1D2
:1004B0005F5F00C025C00C701027515012F45D5FC3
:1004C0000000115027952C3F10B3C8F61C7001276F
:1004D000015027952C3FC8F64227499300B30C7072
:1004E00010274F73115027952C3FA8F64695469537
:1004F00010B31C7079F00127015027952C3F98F616
:100500006B5A60F3315000B3B0F600C010E41ABF6C
:10051000002719C03B503195C31BD04010E41ABFCF
:100520000881033C09F10B34F9F020917F00198117
:10053000110F1213EDCF4A81441F093651F10D32CC
:1005400011F0013E29F7009386003F915F914F9192
:100550001F910F912F916F91CAB7C6FD65CFDF91A3
:10056000CF91CFBFCF91189520918600222369F3B8
:1005700010918400112391F5343092F1309384006E
:1005800020938000109181003BE0311B309381006B
:1005900027C00091840001300CF50AE54F7049F442
:1005A0003091600034FD1DC000936000C8E6D0E0CB
:1005B0001CC03091730034FD14C000937300C4E775
:1005C000D0E013C0052710E000C0000002BB1AC035
:1005D000052710E0221F1DC010E021C04AE502C01F
:1005E00032ED432FC4E1D0E032E011B31C60939AA6
:1005F00002B311BB5CE020E865E320FF052702BBE6
:10060000279517951C3FF0F66695B8F7B1F720FFD0
:10061000052702BB279517951C3FD0F62795179500
:1006200017FF052700001C3F02BBB0F629913A9541
:1006300019F7037F10918500110FC651D04002BBFE
:1006400011F010937F0010E41ABF086011B3137FFC
:10065000402F437F54E05A95F1F702BB11BB42BBD8
:1006600074CFFB01982F92959F709A3008F0995D96
:100670005D9BFECF905D9CB98F708A3008F0895DDC
:100680005D9BFECF805D8CB95D9BFECF8AE38CB90C
:1006900020E219C05D9BFECF2CB99081892F8295F5
:1006A0008F708A3008F0895D5D9BFECF805D8CB9CC
:1006B000892F8F708A3008F0895D5D9BFECF31965F
:1006C000805D8CB94150442329F75D9BFECF8DE0BE
:1006D0008CB95D9BFECF8AE08CB908958D9A8823F2
:1006E00011F495980895813009F4959A08958C9A9B
:1006F000882311F494980895813009F4949A089508
:1007000001C000008499FDCF8D9A882311F495983B
:1007100005C0813019F4959A01C00000849BFDCF7B
:10072000089501C000008499FDCF80B301C000008E
:10073000849BFDCF90E08072907025E09595879521
:100740002A95E1F70895982F482F50E0881F8827B1
:10075000881F9170892791E089279A012270307053
:100760003595279582279A01247030703595279505
:100770003595279582279A0128703070E3E03595EA
:100780002795EA95E1F782279A012071307074E08D
:10079000359527957A95E1F782279A012072307076
:1007A00065E0359527956A95E1F78227407450708A
:1007B00036E0559547953A95E1F7842708959F923D
:1007C000AF92BF92CF92DF92EF92FF920F931F935F
:1007D000CF93DF93182FB7DF982E212F30E0C90178
:1007E0008270907095958795A82EC901847090703D
:1007F0009595879595958795B82EC90188709070C5
:1008000063E0959587956A95E1F7C82EC9018071D7
:10081000907054E0959587955A95E1F7D82EC901C7
:100820008072907045E0959587954A95E1F7E82E9E
:100830002074307006E0359527950A95E1F7F22E81
:10084000012F001F0027001FC8E5D2E011708C9A0D
:100850009498CE010197F1F78D9A95988C9A949A75
:100860008C98949A812F4CDF8A2D4ADF8B2D48DF9C
:100870008C2D46DF8D2D44DF8E2D42DF8F2D40DF06
:10088000802F3EDF892D3CDF81E03ADF8D98959AFD
:1008900001C000008499FDCF80B301C00000849B9B
:1008A000FDCF90E080729070B5E095958795BA95F0
:1008B000E1F7882361F6DF91CF911F910F91FF90AF
:1008C000EF90DF90CF90BF90AF909F9008950F93DF
:1008D0001F9301C000008499FDCF80B301C00000C8
:1008E000849BFDCF01C000008499FDCFF0B301C00F
:1008F0000000849BFDCF01C000008499FDCF20B390
:1009000001C00000849BFDCF01C000008499FDCF91
:1009100080B301C00000849BFDCF01C0000084991A
:10092000FDCFE0B301C00000849BFDCF01C00000FB
:100930008499FDCF70B301C00000849BFDCF01C03E
:1009400000008499FDCF60B301C00000849BFDCFFF
:1009500001C000008499FDCF50B301C00000849B0A
:10096000FDCF01C000008499FDCF40B301C000005D
:10097000849BFDCF30E02072307095E0369527954E
:100980009A95E1F7220F331F90E08072907015E086
:10099000969587951A95E1F7880F991F880F991FEB
:1009A000282B8F2F90E080729070A5E09595879509
:1009B000AA95E1F7282B8E2F90E080729070F5E0D9
:1009C00096958795FA95E1F7E3E0880F991FEA95E8
:1009D000E1F7282B872F90E08072907075E0969554
:1009E00087957A95E1F734E0880F991F3A95E1F7FA
:1009F000282B162F1072122B852F90E0807290708A
:100A000025E0969587952A95E1F706E0880F991FCE
:100A10000A95E1F7182B842F90E080729070B5E072
:100A200096958795BA95E1F79695982F882797958B
:100A30008795182B01C000008499FDCF00B301C039
:100A40000000849BFDCF01C000008499FDCF80B3DE
:100A500001C00000849BFDCF812F75DE202F30E088
:100A600020723070F5E035952795FA95E1F78217F9
:100A700011F08EEFA4DE812F1F910F9108959091B8
:100A8000A100892F83708093A400892F8071880F23
:100A9000880F880F80939F009072990F990F909301
:100AA0009E00E091A200EF77E82BE0936600409172
:100AB000A3004F77492B40936500209162003327B4
:100AC00027FD3095842F992787FD9095B901C4D0D3
:100AD0006093A7008E2F992787FD9095B901BCD010
:100AE0006093A80047FF03C0419540936500E7FF6E
:100AF00003C0E195E09366009091650080916600E7
:100B000089173CF098171CF41092A70004C01092AB
:100B1000A7001092A8008EED6FE970E041E0A1DD22
:100B20008EED66E670E041E09CDD8EED6EE970E0F2
:100B300041E097DD8EED65E670E041E092DD0895DD
:100B40001F938BEE3CDEC3DE1092A0000BC0BFDE15
:100B5000E12FF0E0EF55FF4F80838091A0008F5F81
:100B60008093A0001091A000133088F38DED61EA0E
:100B700070E043E076DD1F9108958FEF20DEA7DE61
:100B8000A6DEA5DE84EF1BDEA2DE80EF18DE9FDE90
:100B900008958FEF87BB88BB089588BB08958EE0CA
:100BA00028E130E00FB6F894A89521BD0FBE81BDB5
:100BB000539A83E389B9C7DA8B9A20E040EA5FE071
:100BC00004C0A895CA010197F1F72150D1F78B987D
:100BD000789480E160E070E040E043DD0895BC017E
:100BE000FC0180818076803211F58181813041F471
:100BF00084EA90E0909383008093820085E00895DA
:100C0000823041F487E690E09093830080938200E5
:100C100081E008958A3021F483818093670005C0C4
:100C2000893029F487E648E01CDD80E0089580E003
:100C30000895AFDFB4DF80E0B0DF9FDFA89590DAE2
:100C40008091730084FFFACFA8957ADF18DF84EAD9
:100C500090E065E09BDBF2CF97FB092E07260AD0D8
:100C600077FD04D00CD006D000201AF47095619561
:100C70007F4F0895F6F7909581959F4F0895AA1B91
:100C8000BB1B51E107C0AA1FBB1FA617B70710F077
:100C9000A61BB70B881F991F5A95A9F780959095A9
:0A0CA000BC01CD010895F894FFCFC8
:040CAA005AFF0300EA
:00000001FF
