:1000000086C0A1C39FC09EC09DC09CC09BC09AC01B
:1000100099C098C097C096C095C094C093C092C034
:1000200091C090C08FC00403090412034E00610008
:10003000670069002D0053007900730028034E000B
:10004000610067006900200046006900740020001C
:1000500043006F006E00740072006F006C006C0053
:10006000650072001201100100000008EDFEEFBEF5
:1000700000010102000109022200010100800A09B9
:1000800004000001030000000921010100012276A3
:10009000000705810308006405010902A1010902A6
:1000A000A1020901A1000509190129051500250171
:1000B00075019505810275039501810305010930DC
:1000C00009311581257F750895028106A10209482D
:1000D000150025013501450475029501A4B10209F9
:1000E000381581257F3500450075088106C0A102BD
:1000F0000948B4B102350045007504B103050C0A86
:1001000038021581257F75088106C0C0C0C0112442
:100110001FBECFE5D4E0DEBFCDBF10E0A0E6B0E06B
:10012000E8E6FFE102C005900D92AA36B107D9F7C3
:1001300010E0AAE6B0E001C01D92AB3AB107E1F7CA
:10014000C8D810CF5DCFDF93CF93CDB7DEB7289758
:100150000FB6F894DEBF0FBECDBF9D838C836E8338
:1001600058874F83EF81F8858081882F90E08071D8
:100170009070009749F0EF81F885918188E8892790
:10018000EF81F885818304C0EF81F8858AE580835B
:100190008F81988502969B838A838E818983EC81E7
:1001A000FD818081EA81FB8180838A819B81019628
:1001B0009B838A838C819D8101969D838C83898119
:1001C000815089838981181654F38F81988502960E
:1001D0006E81B5D28E818C5FEF81F88580838F81AF
:1001E000988595958795959587959595879583702D
:1001F000482F4F5D8F8198859C012F5F3F4F8E81E7
:10020000982F9D5F842FB901492FFED328960FB6F2
:10021000F894DEBF0FBECDBFCF91DF910895DF937D
:10022000CF9300D00F92CDB7DEB79A8389836B83CB
:1002300089819A8127E730E06B81A90184DF0F90E3
:100240000F900F90CF91DF910895DF93CF93CDB7AB
:10025000DEB72A970FB6F894DEBF0FBECDBF9987E1
:1002600088876A878A85882309F44BC08A858F83AB
:1002700080918600909187009E838D8380916A0093
:10028000882F90E0807490700097F9F08D819E81A6
:100290009B838A83EA81FB818491898389818C8312
:1002A000E885F9858C818083888599850196998771
:1002B00088878D819E8101969E838D838F81815059
:1002C0008F838F81882311F716C0ED81FE81808195
:1002D000E885F9858083888599850196998788873F
:1002E0008D819E8101969E838D838F8181508F8326
:1002F0008F81882351F78D819E8190938700809311
:1003000086008A852A960FB6F894DEBF0FBECDBF51
:10031000CF91DF910895DF93CF9300D00F92CDB7A7
:10032000DEB78091880083508B838B8188237CF09B
:1003300080918500282F30E08CE090E0821B930BA9
:1003400084579F4F2B81622F32D01092880080916A
:100350006000882F90E080719070009729F0809164
:1003600061008F3F09F065D184E18A830BC0E0E32F
:10037000F0E080818C7089838981882381F48A816F
:1003800081508A838A81882391F710928900109284
:10039000830096D18FEF60E070E040E035D38A8132
:1003A00096D10F900F900F90CF91DF910895DF932A
:1003B000CF93CDB7DEB727970FB6F894DEBF0FBE49
:1003C000CDBF9E838D836F838D819E819C838B8324
:1003D000809184008F70982F905F8F81482F4E5F9F
:1003E0002D813E81892FB9010FD3809184008D32F8
:1003F00071F58F81883059F583EC80936C008AE524
:100400008093600010926A00EB81FC81808180768D
:1004100089838981882329F08D819E81F6D68A83FC
:1004200004C08B819C811CD08A83EB81FC818781F5
:10043000882351F4EB81FC8196818A81981720F4FE
:10044000EB81FC8186818A838A8180936100279673
:100450000FB6F894DEBF0FBECDBFCF91DF910895E8
:10046000DF93CF93CDB7DEB728970FB6F894DEBFF2
:100470000FBECDBF98878F831E8285E790E09D8356
:100480008C83EF81F88582818B83EC81FD811082E2
:10049000EF81F88581818A838A81882369F4EF81DD
:1004A000F88580818F7189838C819D81FC013196D3
:1004B000108282E08E832CC08A81853021F48B816A
:1004C0008093890025C08A81863029F48F819885A0
:1004D0002FD08E8323C08A81883039F48BE890E056
:1004E0009D838C8381E08E8313C08A81893029F4B7
:1004F0008B8180938B00E4D00BC08A818A3019F401
:1005000081E08E8305C08A818B3011F488D0D8D0E9
:100510008C819D8190938700809386008E812896A0
:100520000FB6F894DEBF0FBECDBFCF91DF91089517
:10053000DF93CF9300D000D000D0CDB7DEB79E833D
:100540008D831C8280E48B83ED81FE8183818A838D
:100550008A81813049F482E18C8384E690E0909333
:100560008700809386004EC08A81823049F482E2FF
:100570008C8386E790E0909387008093860042C04A
:100580008A81833041F5ED81FE8182818983898171
:10059000882349F484E08C8386E290E0909387007E
:1005A000809386002FC08981813049F482E18C8359
:1005B0008AE290E0909387008093860023C089812F
:1005C000823001F588E28C838CE390E09093870081
:1005D0008093860017C08A81813249F489E08C8338
:1005E00088E890E090938700809386000BC08A8112
:1005F000823241F486E78C8388E990E0909387000B
:10060000809386008B8180936A008C8126960FB63A
:10061000F894DEBF0FBECDBFCF91DF910895DF9379
:10062000CF93CDB7DEB78BE480937800CF91DF9185
:100630000895DF93CF9300D0CDB7DEB780916100EE
:100640008A838A81893010F088E08A8390916100E2
:100650008A81292F281B822F8093610090916C0042
:1006600088E8892780936C008DE690E06A81EDDD53
:1006700089838981893070F48DE690E069815FD04B
:1006800089818C5F898389818C3048F48FEF8093D6
:10069000610005C08EE189838FEF809361008981BD
:1006A000809360008981982F91502CE630E080E2A1
:1006B000B901492FA9D10F900F90CF91DF910895E3
:1006C000DF93CF93CDB7DEB7CF91DF910895DF935E
:1006D000CF930F92CDB7DEB789830F90CF91DF9183
:1006E0000895DF93CF93CDB7DEB7A5E5B0E0E5E59C
:1006F000F0E0808182608C93ABE5B0E0EBE5F0E068
:10070000808180648C938BDF8AE580937700CF9122
:10071000DF910895A82FB92F80E090E041E050EAE2
:10072000609530E009C02D9182279795879510F04C
:1007300084279527305EC8F36F5FA8F30895EADF3A
:100740008D939D930895CF93CFB7CF93DF93C395A8
:10075000839BE9F7839B0BC0839B09C0839B07C0E6
:10076000839B05C0839B03C0839B01C08BC06F9399
:10077000C0918500DD27C457DF4F2F9365E5839B2C
:1007800003C02F916F91E6CF0F931F934F9320E0FB
:1007900040E15F9300B30C7003FB27F93F9350E0F7
:1007A0003BE039C01C7040642F77012F5F5F1EC093
:1007B000406810B31C702F7752501FC0406400B3C4
:1007C0002F770C70D1F15F5F00C023C0406210B37F
:1007D0002F771C7091F15F5F00C025C00C7010274F
:1007E000515012F45D5F0000115027952C3F10B35B
:1007F000C8F61C700127015027952C3FC8F64227E8
:10080000499300B30C7010274F73115027952C3F5C
:10081000A8F64695469510B31C7079F00127015053
:1008200027952C3F98F66B5A60F3315000B3B0F621
:1008300000C010E41ABF002719C03B503195C31BFC
:10084000D04010E41ABF0881033C09F10B34F9F0E1
:10085000209183001981110F1213EDCF4A81441F9B
:10086000093651F10D3211F0013E29F700938A004B
:100870003F915F914F911F910F912F916F91CAB747
:10088000C6FD65CFDF91CF91CFBFCF911895209155
:100890008A00222369F310918800112391F53430E6
:1008A00092F13093880020938400109185003BE002
:1008B000311B3093850027C00091880001300CF572
:1008C0000AE54F7049F43091600034FD1DC000937B
:1008D0006000CCE6D0E01CC03091770034FD14C03D
:1008E00000937700C8E7D0E013C0052710E000C0F0
:1008F000000002BB1AC0052710E0221F1DC010E037
:1009000021C04AE502C032ED432FC4E1D0E032E01D
:1009100011B31C60939A02B311BB5CE020E865E35D
:1009200020FF052702BB279517951C3FF0F666951B
:10093000B8F7B1F720FF052702BB279517951C3F95
:10094000D0F62795179517FF052700001C3F02BB1F
:10095000B0F629913A9519F7037F10918900110F8C
:10096000C651D04002BB11F01093830010E41ABFAF
:10097000086011B3137F402F437F54E05A95F1F77D
:1009800002BB11BB42BB74CFDF93CF930F92CDB7A5
:10099000DEB78983EBE2F0E08081882F90E08072FF
:1009A00090700097B9F3ECE2F0E0898180830F90BA
:1009B000CF91DF910895DF93CF930F92CDB7DEB73C
:1009C000898389818F70898389818A3018F0898130
:1009D000895D89838981805D898389810F90CF9129
:1009E000DF910895DF93CF930F92CDB7DEB7898360
:1009F000898182958F70DFDFC7DF8981DCDFC4DF0B
:100A00000F90CF91DF910895DF93CF9300D000D066
:100A10000F92CDB7DEB789837B836A834C8389814C
:100A2000E1DF8AE3B1DF0CC080E2AEDFEA81FB8167
:100A300020818A819B8101969B838A83822FD2DFCA
:100A40008C818D838D81882311F081E08D838D8150
:100A50009C8191509C83882339F78DE095DF8AE053
:100A600093DF0F900F900F900F900F90CF91DF9129
:100A70000895DF93CF930F92CDB7DEB78983A1E3BB
:100A8000B0E0E1E3F0E0808180628C93898188238B
:100A900041F4A2E3B0E0E2E3F0E080818F7D8C934B
:100AA0000AC08981813039F4A2E3B0E0E2E3F0E0EA
:100AB000808180628C930F90CF91DF910895DF93B6
:100AC000CF930F92CDB7DEB78983A1E3B0E0E1E326
:100AD000F0E0808180618C938981882341F4A2E3D6
:100AE000B0E0E2E3F0E080818F7E8C930AC08981E0
:100AF000813039F4A2E3B0E0E2E3F0E0808180618C
:100B00008C930F90CF91DF910895DF93CF930F9245
:100B1000CDB7DEB7898301C00000E0E3F0E080815B
:100B2000882F90E080719070959587959595879521
:100B30009595879595958795009771F7898199DFA8
:100B400001C00000E0E3F0E08081882F90E0807138
:100B50009070959587959595879595958795959599
:100B60008795009771F30F90CF91DF910895DF93F0
:100B7000CF930F92CDB7DEB701C00000E0E3F0E005
:100B80008081882F90E080719070959587959595DC
:100B900087959595879595958795009771F7E0E3EB
:100BA000F0E08081882F90E0807290709595879515
:100BB000959587959595879595958795959587951D
:100BC000898301C00000E0E3F0E08081882F90E09D
:100BD0008071907095958795959587959595879552
:100BE00095958795009771F389810F90CF91DF914B
:100BF0000895DF93CF9300D0CDB7DEB78A8381E02D
:100C000089838A81982F91708981892789838A8134
:100C1000882F90E08270907095958795982F8981A4
:100C2000892789838A81882F90E0847090709595B8
:100C3000879595958795982F8981892789838A81BA
:100C4000882F90E0887090709595879595958795F9
:100C500095958795982F8981892789838A81882FFF
:100C600090E080719070959587959595879595956D
:100C7000879595958795982F8981892789838A817A
:100C8000882F90E0807290709595879595958795BF
:100C9000959587959595879595958795982F8981B1
:100CA000892789838A81882F90E080749070082E2C
:100CB000892F000C881F990B000C881F991F982FF3
:100CC0008981892789838A81881F8827881F982F8F
:100CD00089818927898389810F900F90CF91DF9136
:100CE0000895DF93CF93CDB7DEB76A970FB6F89428
:100CF000DEBF0FBECDBF8A8F8A8D7BDF898F80E0FC
:100D0000DEDE80E090E0A6E1B3E48D8B9E8BAF8BBE
:100D1000B88F6D897E898F89988D2BEA3AEA4AEAE5
:100D200050E4D5D4DC01CB01898B9A8BAB8BBC8B87
:100D300069897A898B899C8920E030E040E85FE30B
:100D4000B8D688231CF481E0888B88C069897A89A9
:100D50008B899C8920E030E04FE753E454D6181685
:100D60000CF074C06D897E898F89988D20E030E009
:100D70004AE754E4A1D5DC01CB018C879D87AE877F
:100D8000BF876C857D858E859F8520E030E04AE7B2
:100D900055E49DD4DC01CB0188879987AA87BB875E
:100DA000688579858A859B8520E030E040E85FE3AF
:100DB00080D688232CF481E090E09F838E833BC013
:100DC000688579858A859B8520E03FEF4FE757E46A
:100DD0001AD618163CF56C857D858E859F8520E09A
:100DE00030E040E251E473D4DC01CB01BC01CD0121
:100DF000AAD2DC01CB019F838E830FC080E991E0F2
:100E00009D838C838C819D810197F1F79D838C83D9
:100E10008E819F8101979F838E838E819F81009712
:100E200069F722C0688579858A859B858CD2DC012B
:100E3000CB019F838E838E819F819B838A838A814E
:100E40009B810197F1F79B838A830EC069897A8918
:100E50008B899C8978D2DC01CB01888B8889898336
:100E600089818A95F1F7898380E003DE81E027DEBE
:100E7000A1E3B0E0E1E3F0E080818F7E8C93A2E318
:100E8000B0E0E2E3F0E0808180618C938A8D817034
:100E90003CDE8A8D882F90E08270907095958795C2
:100EA00034DE8A8D882F90E08470907095958795B8
:100EB000959587952ADE8A8D882F90E088709070AE
:100EC0009595879595958795959587951EDE8A8D3D
:100ED000882F90E08071907095958795959587956E
:100EE000959587959595879510DE8A8D882F90E04A
:100EF000807290709595879595958795959587952E
:100F0000959587959595879500DE8A8D882F90E039
:100F100080749070082E892F000C881F990B000C8C
:100F2000881F991FF2DD8A8D881F8827881FEDDDB5
:100F3000898DEBDD81E0E9DDA1E3B0E0E1E3F0E004
:100F400080818F7D8C93A2E3B0E0E2E3F0E08081CA
:100F500080628C930CDE882311F08A8DC2DE6A9643
:100F60000FB6F894DEBF0FBECDBFCF91DF910895CD
:100F7000DF93CF9300D0CDB7DEB71A82F8DDF7DD6F
:100F8000982F8A81892B8A83F2DD882F90E0880F41
:100F9000991F982F8A81892B8A83E9DD882F90E019
:100FA000880F991F880F991F982F8A81892B8A8310
:100FB000DEDD882F90E0880F991F880F991F880F1A
:100FC000991F982F8A81892B8A83D1DD882F90E001
:100FD00082959295907F9827807F9827982F8A8175
:100FE000892B8A83C4DD882F90E0880F991F829512
:100FF0009295907F9827807F9827982F8A81892BB8
:101000008A83B5DD882F90E0002496958795079414
:10101000969587950794982F802D982F8A81892BF4
:101020008A83A5DD882F90E09695982F882797953D
:101030008795982F8A81892B8A8399DD898397DD0B
:101040008A81D7DD982F8981981711F08EEF49DEBC
:101050008A810F900F90CF91DF910895DF93CF9306
:10106000CDB7DEB7E7E3F0E08FEF8083E8E3F0E0B1
:101070008FEF8083CF91DF910895DF93CF930F920D
:10108000CDB7DEB78983E8E3F0E0898180830F90F4
:10109000CF91DF910895DF93CF93CDB7DEB72F9730
:1010A0000FB6F894DEBF0FBECDBF88E190E02EE012
:1010B0000FB6F894A89581BD0FBE21BD94D011DB69
:1010C000A1E3B0E0E1E3F0E0808188608C931F86CB
:1010D0006DC0A89580E090E0A0E8BFE38B879C8777
:1010E000AD87BE876B857C858D859E8520E030E051
:1010F0004AE755E4ECD2DC01CB018F839887A987BE
:10110000BA876F81788589859A8520E030E040E84C
:101110005FE3CFD488232CF481E090E09E838D831D
:101120003BC06F81788589859A8520E03FEF4FE746
:1011300057E469D418163CF56B857C858D859E85B2
:1011400020E030E040E251E4C2D2DC01CB01BC013E
:10115000CD01F9D0DC01CB019E838D830FC080E9E6
:1011600091E09C838B838B819C810197F1F79C8319
:101170008B838D819E8101979E838D838D819E813E
:10118000009769F713C06F81788589859A85DBD0D0
:10119000DC01CB019E838D838D819E819A8389831F
:1011A00089819A810197F1F79A8389838F8581508C
:1011B0008F878F85882309F08CCFA1E3B0E0E1E32E
:1011C000F0E08081877F8C93789480E160E070E02C
:1011D00040E01ADC2F960FB6F894DEBF0FBECDBFED
:1011E000CF91DF910895DF93CF93CDB7DEB7AAE219
:1011F000B0E0EAE2F0E0808188608C93E9E2F0E020
:1012000083E38083CF91DF910895DF93CF9300D064
:1012100000D00F92CDB7DEB79C838B838B819C81EE
:101220009A838983E981FA818081882F90E0807692
:1012300090708032910591F5E981FA818181813048
:1012400049F486EA90E0909387008093860085E0D9
:101250008D8325C0E981FA818181823049F48BE652
:1012600090E0909387008093860081E08D8317C083
:10127000E981FA8181818A3031F4E981FA818381BF
:1012800080936B000BC0E981FA818181893031F450
:101290002B813C8187E6B90148E0B6DB1D828D8158
:1012A0000F900F900F900F900F90CF91DF910895B6
:1012B0008AE060E070E040E0A7DB8FEF12DD58DEEF
:1012C00057DE56DE84EF0DDD53DE80EF0ADD50DEA3
:1012D00008951F93C3DEDFDE80E0CFDEA895E8DF50
:1012E000892B21F081E0C9DE81E003C082E0C5DE08
:1012F00082E060E070E040E087DBA8950CD8809148
:10130000770084FFFACFA8958BEEEBDC31DE1092EC
:10131000A5000BC02DDEE12FF0E0EE55FF4F8083DE
:101320008091A5008F5F8093A5001091A5001330D8
:1013300088F38DED62EA70E043E066DB86EA90E0D8
:1013400065E06DD7DACFEF92FF920F931F937B0189
:101350008C0120E030E040E05FE480D388237CF023
:10136000C801B70120E030E040E05FE45ED1CCD3BB
:101370009B01AC01205030404040504805C0C8019E
:10138000B701C2D39B01AC01B901CA011F910F91F2
:10139000FF90EF900895A0E0B0E0E0EDF9E0ABC57C
:1013A000DC012B01FA019C91923008F439C1EB0168
:1013B0008881823008F433C1943069F4843009F0B4
:1013C0002FC111969C9111978981981709F428C112
:1013D000A2E6B0E025C1843009F421C18230A9F42D
:1013E000923009F01DC19A01AD0188E0EA0109902F
:1013F000AE01E90109929E018150C1F7E2018981A4
:1014000011969C918923818308C1923009F407C108
:1014100012962D903C901397EB018A819B81149634
:10142000AD90BD90CD90DC901797EC80FD800E8143
:101430001F819101281B390BB90137FF04C06627B2
:101440007727621B730B603271050CF061C01216B6
:1014500013066CF537014801062E04C09694879454
:10146000779467940A94D2F721E030E040E050E0AE
:1014700004C0220F331F441F551F6A95D2F7215015
:101480003040404050402E213F2140235123211520
:1014900031054105510521F021E030E040E050E008
:1014A00079018A01E628F728082919293CC0232B4D
:1014B000D1F1260E371E35014601062E04C0969442
:1014C0008794779467940A94D2F721E030E040E063
:1014D00050E004C0220F331F441F551F6A95D2F7F6
:1014E00021503040404050402A213B214C215D2179
:1014F000211531054105510521F021E030E040E0A2
:1015000050E059016A01A628B728C828D9280BC07D
:10151000821593052CF01C01AA24BB24650103C08D
:10152000EE24FF24870111969C91D20111968C9193
:10153000981709F445C0992339F0A80197012A1991
:101540003B094C095D0906C0A60195012E193F090A
:10155000400B510B57FD08C0118233822282248335
:101560003583468357831DC081E081833382228285
:1015700088279927DC01821B930BA40BB50B84836E
:101580009583A683B7830DC0220F331F441F551FB9
:101590002483358346835783828193810197938384
:1015A00082832481358146815781DA01C9010197FF
:1015B000A109B1098F5F9F4FAF4FBF4328F30BC005
:1015C000918333822282EA0CFB1C0C1D1D1DE482D8
:1015D000F5820683178383E08083248135814681E9
:1015E000578157FF1AC0C901AA2797FDA095BA2FA6
:1015F00081709070A070B07056954795379527957B
:10160000822B932BA42BB52B84839583A683B7833E
:1016100082819381019693838283DF0101C0D2018D
:10162000CD01CDB7DEB7E2E182C4A0E2B0E0EAE1ED
:10163000FBE06DC469837A838B839C832D833E8317
:101640004F835887E9E0EE2EF12CEC0EFD1ECE0103
:101650000196B7017FD38E010F5E1F4FCE01059615
:10166000B80178D38A8991E089278A8BC701B801AC
:10167000AE01475E5F4F8FDE98D2A096E6E063C46E
:10168000A0E2B0E0E5E4FBE042C469837A838B83A7
:101690009C832D833E834F835887F9E0EF2EF12CF6
:1016A000EC0EFD1ECE010196B70154D38E010F5EE4
:1016B0001F4FCE010596B8014DD3C701B801AE0149
:1016C000475E5F4F68DE71D2A096E6E03CC4A0E2C0
:1016D000B0E0ECE6FBE00FC469837A838B839C83E4
:1016E0002D833E834F835887CE010196BE01675FED
:1016F0007F4F30D3CE010596BE016F5E7F4F2AD358
:101700009985923088F089898230C8F0943019F434
:10171000823051F404C0843029F4923081F482E69E
:1017200090E0C6C0923049F420E09A858A899813E7
:1017300021E02A87CE010996BBC0823049F420E01F
:101740009A858A89981321E02A8BCE014196B0C0F0
:101750002D843E844F8458886D887E888F88988C2D
:10176000EE24FF248701AA24BB24650140E050E059
:1017700060E070E0E0E0F0E0C10181709070892BE2
:10178000E9F0E60CF71C081D191D9A01AB012A0DA2
:101790003B1D4C1D5D1D80E090E0A0E0B0E0E61434
:1017A000F7040805190520F481E090E0A0E0B0E01E
:1017B000BA01A901480F591F6A1F7B1FAA0CBB1C45
:1017C000CC1CDD1C97FE08C081E090E0A0E0B0E0FA
:1017D000A82AB92ACA2ADB2A3196E032F10549F053
:1017E000660C771C881C991C569447943794279450
:1017F000C3CFFA85EA892B893C898B859C85280F84
:10180000391F2E5F3F4F17C0CA0181709070892B1E
:1018100061F016950795F794E79480E090E0A0E0DA
:10182000B0E8E82AF92A0A2B1B2B7695679557957D
:1018300047952F5F3F4F77FDE7CF0CC0440F551FF3
:10184000661F771F17FD4160EE0CFF1C001F111F64
:1018500021503040403090E0590790E0690790E413
:10186000790760F32B8F3C8FDB01CA018F77907073
:10187000A070B07080349105A105B10561F447FDF9
:101880000AC0E114F1040105110529F0405C5F4F25
:101890006F4F7F4F40781A8EFE1711F081E08A8FCC
:1018A0004D8F5E8F6F8F78A383E0898FCE0149962D
:1018B0007CD1A096E2E13BC3A8E1B0E0E1E6FCE028
:1018C00022C369837A838B839C832D833E834F83DA
:1018D0005887B9E0EB2EF12CEC0EFD1ECE010196DF
:1018E000B70138D28E010F5E1F4FCE010596B801A9
:1018F00031D22985223008F47EC03989323010F483
:10190000B8017CC08A859A8989278A87243011F09A
:10191000223031F4231709F06EC062E670E06EC029
:10192000343039F41D861E861F86188A1C861B8655
:1019300004C0323021F484E08987B7015FC02B8571
:101940003C858B899C89281B390B3C872B87ED8430
:10195000FE840F851889AD88BE88CF88D88CEA149C
:10196000FB040C051D0540F4EE0CFF1C001F111FAD
:10197000215030403C872B8720E030E040E050E0B1
:1019800080E090E0A0E0B0E460E070E0EA14FB04E6
:101990000C051D0540F0282B392B4A2B5B2BEA1830
:1019A000FB080C091D09B695A79597958795EE0C30
:1019B000FF1C001F111F6F5F7F4F6F31710531F7E3
:1019C000DA01C9018F779070A070B07080349105F2
:1019D000A105B10561F427FD0AC0E114F104010578
:1019E000110529F0205C3F4F4F4F5F4F20782D8726
:1019F0003E874F87588BBE01675F7F4FCB01D5D0A5
:101A00006896EAE09CC2A8E1B0E0E8E0FDE07FC2B1
:101A100069837A838B839C832D833E834F8358878E
:101A200089E0E82EF12CEC0EFD1ECE010196B701E7
:101A300091D18E010F5E1F4FCE010596B8018AD15C
:101A40008985823038F08989823020F0C701B80159
:101A5000F9D101C08FEF6896E6E075C2A8E1B0E069
:101A6000E3E3FDE054C269837A838B839C832D83F7
:101A70003E834F83588789E0E82EF12CEC0EFD1E43
:101A8000CE010196B70166D18E010F5E1F4FCE01C8
:101A90000596B8015FD18985823038F08989823016
:101AA00020F0C701B801CED101C08FEF6896E6E003
:101AB0004AC2A8E1B0E0EEE5FDE029C269837A837D
:101AC0008B839C832D833E834F83588789E0E82E48
:101AD000F12CEC0EFD1ECE010196B7013BD18E011B
:101AE0000F5E1F4FCE010596B80134D18985823033
:101AF00038F08989823020F0C701B801A3D101C034
:101B000081E06896E6E01FC2ACE0B0E0E9E8FDE005
:101B100002C269837A838B839C83CE010196BE01C6
:101B20006B5F7F4F17D18D81823061F1823050F130
:101B3000843021F48E81882351F12EC02F81388585
:101B400037FD20C06E812F3131051CF06623F9F07E
:101B500023C08EE190E0821B930B29853A854B854B
:101B60005C8504C056954795379527958A95D2F799
:101B70006623B1F050954095309521953F4F4F4FDA
:101B80005F4F0EC020E030E040E050E009C02FEF92
:101B90003FEF4FEF5FE704C020E030E040E050E867
:101BA000B901CA012C96E2E0D2C1DF92EF92FF9216
:101BB0000F931F93FC01E480F58006811781D1808B
:101BC0008081823048F480E090E0A0E1B0E0E82A33
:101BD000F92A0A2B1B2BA5C0843009F49FC0823040
:101BE00021F4EE24FF24870105C0E114F10401056E
:101BF000110519F4E0E0F0E096C0628173819FEF77
:101C0000623879070CF05BC022E83FEF261B370BE8
:101C10002A3131052CF020E030E040E050E02AC0CD
:101C2000B801A701022E04C0769567955795479590
:101C30000A94D2F781E090E0A0E0B0E004C0880F01
:101C4000991FAA1FBB1F2A95D2F70197A109B109B5
:101C50008E219F21A023B1230097A105B10521F07A
:101C600081E090E0A0E0B0E09A01AB01282B392B95
:101C70004A2B5B2BDA01C9018F779070A070B0708E
:101C800080349105A105B10539F427FF09C0205C16
:101C90003F4F4F4F5F4F04C0215C3F4F4F4F5F4F4F
:101CA000E0E0F0E02030A0E03A07A0E04A07A0E43E
:101CB0005A0710F0E1E0F0E079018A0127C06038AE
:101CC000710564F5FB01E158FF4FD801C7018F771B
:101CD0009070A070B07080349105A105B10539F401
:101CE000E7FE0DC080E490E0A0E0B0E004C08FE328
:101CF00090E0A0E0B0E0E80EF91E0A1F1B1F17FFDE
:101D000005C016950795F794E794319687E01695E8
:101D10000795F794E7948A95D1F705C0EE24FF2440
:101D20008701EFEFF0E06E2F679566276795902F9C
:101D30009F77D794DD24D7948E2F8695492F462BF5
:101D4000582F5D29B701CA011F910F91FF90EF90A5
:101D5000DF900895FC01DB01408151812281622FD7
:101D60006F7770E0221F2227221F9381892F880F0F
:101D7000822B282F30E0991F9927991F11969C9349
:101D8000119721153105A9F5411551056105710519
:101D900011F482E037C082E89FEF13969C938E93F4
:101DA00012979A01AB0167E0220F331F441F551FA2
:101DB0006A95D1F783E08C930DC0220F331F441F27
:101DC000551F12968D919C911397019713969C9392
:101DD0008E931297203080E0380780E0480780E437
:101DE000580758F314962D933D934D935C93179792
:101DF00008952F3F310579F44115510561057105AD
:101E000019F484E08C93089564FF03C081E08C93FF
:101E100012C01C9210C02F57304013963C932E9343
:101E2000129783E08C9387E0440F551F661F771F3E
:101E30008A95D1F7706414964D935D936D937C935E
:101E4000179708951F93DC01FB019C91923008F4D1
:101E500047C08081823008F443C0943051F4119619
:101E60001C91843099F58181682F70E0611B7109A4
:101E70003FC0843021F0923031F48230B9F1818159
:101E8000882389F12DC011961C9111978230F1F0B1
:101E900081811817D9F412962D913C911397828164
:101EA00093818217930794F028173907BCF0149692
:101EB0008D919D910D90BC91A02D248135814681FD
:101EC0005781281739074A075B0718F4112341F097
:101ED0000AC082179307A407B50740F4112319F02D
:101EE00061E070E005C06FEF7FEF02C060E070E07E
:101EF000CB011F9108952F923F924F925F926F9264
:101F00007F928F929F92AF92BF92CF92DF92EF9289
:101F1000FF920F931F93CF93DF93CDB7DEB7CA1B0A
:101F2000DB0B0FB6F894DEBF0FBECDBF09942A8835
:101F3000398848885F846E847D848C849B84AA84DD
:101F4000B984C884DF80EE80FD800C811B81AA816A
:101F5000B981CE0FD11D0FB6F894DEBF0FBECDBF35
:081F6000ED010895F894FFCF94
:0A1F68005AFF000000000000000016
:00000001FF
